{
  "_format": "hh-sol-artifact-1",
  "contractName": "MevEthShareVault",
  "sourceName": "contracts/MevEthShareVault.sol",
  "abi": [
    {
      "inputs": [
        {
          "internalType": "address",
          "name": "authority",
          "type": "address"
        },
        {
          "internalType": "address",
          "name": "mevEth",
          "type": "address"
        },
        {
          "internalType": "uint256",
          "name": "initialFeeRewardsPerBlock",
          "type": "uint256"
        }
      ],
      "stateMutability": "nonpayable",
      "type": "constructor"
    },
    {
      "inputs": [],
      "name": "Unauthorized",
      "type": "error"
    },
    {
      "inputs": [],
      "name": "WrongRole",
      "type": "error"
    },
    {
      "anonymous": false,
      "inputs": [
        {
          "indexed": true,
          "internalType": "address",
          "name": "newAdmin",
          "type": "address"
        }
      ],
      "name": "AdminAdded",
      "type": "event"
    },
    {
      "anonymous": false,
      "inputs": [
        {
          "indexed": true,
          "internalType": "address",
          "name": "oldAdmin",
          "type": "address"
        }
      ],
      "name": "AdminDeleted",
      "type": "event"
    },
    {
      "anonymous": false,
      "inputs": [
        {
          "indexed": true,
          "internalType": "address",
          "name": "newOperator",
          "type": "address"
        }
      ],
      "name": "OperatorAdded",
      "type": "event"
    },
    {
      "anonymous": false,
      "inputs": [
        {
          "indexed": true,
          "internalType": "address",
          "name": "oldOperator",
          "type": "address"
        }
      ],
      "name": "OperatorDeleted",
      "type": "event"
    },
    {
      "anonymous": false,
      "inputs": [
        {
          "indexed": true,
          "internalType": "address",
          "name": "recipient",
          "type": "address"
        },
        {
          "indexed": true,
          "internalType": "address",
          "name": "token",
          "type": "address"
        },
        {
          "indexed": true,
          "internalType": "uint256",
          "name": "amount",
          "type": "uint256"
        }
      ],
      "name": "TokenRecovered",
      "type": "event"
    },
    {
      "stateMutability": "payable",
      "type": "fallback"
    },
    {
      "inputs": [],
      "name": "MEV_ETH",
      "outputs": [
        {
          "internalType": "contract ITinyMevEth",
          "name": "",
          "type": "address"
        }
      ],
      "stateMutability": "view",
      "type": "function"
    },
    {
      "inputs": [
        {
          "internalType": "address",
          "name": "newAdmin",
          "type": "address"
        }
      ],
      "name": "addAdmin",
      "outputs": [],
      "stateMutability": "nonpayable",
      "type": "function"
    },
    {
      "inputs": [
        {
          "internalType": "address",
          "name": "newOperator",
          "type": "address"
        }
      ],
      "name": "addOperator",
      "outputs": [],
      "stateMutability": "nonpayable",
      "type": "function"
    },
    {
      "inputs": [
        {
          "internalType": "address",
          "name": "",
          "type": "address"
        }
      ],
      "name": "admins",
      "outputs": [
        {
          "internalType": "bool",
          "name": "",
          "type": "bool"
        }
      ],
      "stateMutability": "view",
      "type": "function"
    },
    {
      "inputs": [
        {
          "internalType": "address",
          "name": "oldAdmin",
          "type": "address"
        }
      ],
      "name": "deleteAdmin",
      "outputs": [],
      "stateMutability": "nonpayable",
      "type": "function"
    },
    {
      "inputs": [
        {
          "internalType": "address",
          "name": "oldOperator",
          "type": "address"
        }
      ],
      "name": "deleteOperator",
      "outputs": [],
      "stateMutability": "nonpayable",
      "type": "function"
    },
    {
      "inputs": [
        {
          "internalType": "address",
          "name": "",
          "type": "address"
        }
      ],
      "name": "operators",
      "outputs": [
        {
          "internalType": "bool",
          "name": "",
          "type": "bool"
        }
      ],
      "stateMutability": "view",
      "type": "function"
    },
    {
      "inputs": [
        {
          "internalType": "uint256",
          "name": "amount",
          "type": "uint256"
        }
      ],
      "name": "payRewards",
      "outputs": [],
      "stateMutability": "nonpayable",
      "type": "function"
    },
    {
      "inputs": [
        {
          "internalType": "address",
          "name": "token",
          "type": "address"
        },
        {
          "internalType": "address",
          "name": "recipient",
          "type": "address"
        },
        {
          "internalType": "uint256",
          "name": "amount",
          "type": "uint256"
        }
      ],
      "name": "recoverToken",
      "outputs": [],
      "stateMutability": "nonpayable",
      "type": "function"
    },
    {
      "stateMutability": "payable",
      "type": "receive"
    }
  ],
  "bytecode": "0x60a060405234801561001057600080fd5b5060405161075e38038061075e83398101604081905261002f91610090565b6001600160a01b039283166000908152600160208181526040808420805460ff19908116851790915591849052909220805490921617905591166080526002556100cc565b80516001600160a01b038116811461008b57600080fd5b919050565b6000806000606084860312156100a557600080fd5b6100ae84610074565b92506100bc60208501610074565b9150604084015190509250925092565b6080516106706100ee600039600081816101a1015261029501526106706000f3fe6080604052600436106100915760003560e01c806370480275116100635780639eb7e5c11161004b5780639eb7e5c11461018f578063a7229fd9146101db578063b40992a1146101fb57005b8063704802751461014f5780639870d7fe1461016f57005b806313e7c9d81461009a57806327e1f7df146100df578063429b62e5146100ff57806360e3a0ac1461012f57005b3661009857005b005b3480156100a657600080fd5b506100ca6100b53660046105ec565b60006020819052908152604090205460ff1681565b60405190151581526020015b60405180910390f35b3480156100eb57600080fd5b506100986100fa3660046105ec565b61021b565b34801561010b57600080fd5b506100ca61011a3660046105ec565b60016020526000908152604090205460ff1681565b34801561013b57600080fd5b5061009861014a36600461060e565b610293565b34801561015b57600080fd5b5061009861016a3660046105ec565b61030a565b34801561017b57600080fd5b5061009861018a3660046105ec565b610388565b34801561019b57600080fd5b506101c37f000000000000000000000000000000000000000000000000000000000000000081565b6040516001600160a01b0390911681526020016100d6565b3480156101e757600080fd5b506100986101f6366004610627565b610403565b34801561020757600080fd5b506100986102163660046105ec565b61048c565b3360009081526001602052604090205460ff1661024a576040516282b42960e81b815260040160405180910390fd5b6001600160a01b038116600081815260016020526040808220805460ff19169055517f989ddfce057dad219e0ae16f691b121bb0e348f0d8ae0ad400b4d5ac8d616c8b9190a250565b7f00000000000000000000000000000000000000000000000000000000000000006001600160a01b031663558cb7f7826040518263ffffffff1660e01b81526004016000604051808303818588803b1580156102ee57600080fd5b505af1158015610302573d6000803e3d6000fd5b505050505050565b3360009081526001602052604090205460ff16610339576040516282b42960e81b815260040160405180910390fd5b6001600160a01b0381166000818152600160208190526040808320805460ff1916909217909155517f44d6d25963f097ad14f29f06854a01f575648a1ef82f30e562ccd3889717e3399190a250565b3360009081526001602052604090205460ff166103b7576040516282b42960e81b815260040160405180910390fd5b6001600160a01b038116600081815260208190526040808220805460ff19166001179055517fac6fa858e9350a46cec16539926e0fde25b7629f84b5a72bffaae4df888ae86d9190a250565b3360009081526001602052604090205460ff16610432576040516282b42960e81b815260040160405180910390fd5b6104466001600160a01b0384168383610504565b80836001600160a01b0316836001600160a01b03167f879f92dded0f26b83c3e00b12e0395dc72cfc3077343d1854ed6988edd1f909660405160405180910390a4505050565b3360009081526001602052604090205460ff166104bb576040516282b42960e81b815260040160405180910390fd5b6001600160a01b038116600081815260208190526040808220805460ff19169055517f69df2c5ec2ea4d1fbe1e503524f593b356162ca710671263827f2e1992b95ae19190a250565b60006040517fa9059cbb0000000000000000000000000000000000000000000000000000000081526001600160a01b0384166004820152826024820152602060006044836000895af13d15601f3d11600160005114161716915050806105ca576040517f08c379a000000000000000000000000000000000000000000000000000000000815260206004820152600f60248201527f5452414e534645525f4641494c45440000000000000000000000000000000000604482015260640160405180910390fd5b50505050565b80356001600160a01b03811681146105e757600080fd5b919050565b6000602082840312156105fe57600080fd5b610607826105d0565b9392505050565b60006020828403121561062057600080fd5b5035919050565b60008060006060848603121561063c57600080fd5b610645846105d0565b9250610653602085016105d0565b915060408401359050925092509256fea164736f6c6343000813000a",
  "linkReferences": {},
  "deployedLinkReferences": {}
}