{
  "abi": [
    {
      "inputs": [
        {
          "internalType": "address",
          "name": "authority",
          "type": "address"
        },
        {
          "internalType": "address",
          "name": "weth",
          "type": "address"
        },
        {
          "internalType": "address",
          "name": "layerZeroEndpoint",
          "type": "address"
        }
      ],
      "stateMutability": "nonpayable",
      "type": "constructor"
    },
    {
      "inputs": [],
      "name": "AdapterParamsMustBeEmpty",
      "type": "error"
    },
    {
      "inputs": [],
      "name": "AlreadyInitialized",
      "type": "error"
    },
    {
      "inputs": [],
      "name": "AmountSDOverflow",
      "type": "error"
    },
    {
      "inputs": [],
      "name": "AmountTooSmall",
      "type": "error"
    },
    {
      "inputs": [],
      "name": "BelowMinimum",
      "type": "error"
    },
    {
      "inputs": [],
      "name": "CallerMustBeLzApp",
      "type": "error"
    },
    {
      "inputs": [],
      "name": "CallerMustBeOFTCore",
      "type": "error"
    },
    {
      "inputs": [],
      "name": "DepositTooSmall",
      "type": "error"
    },
    {
      "inputs": [],
      "name": "DestinationChainNotTrusted",
      "type": "error"
    },
    {
      "inputs": [],
      "name": "GasLimitTooLow",
      "type": "error"
    },
    {
      "inputs": [],
      "name": "InsufficientAllowance",
      "type": "error"
    },
    {
      "inputs": [],
      "name": "InvalidAdapterParams",
      "type": "error"
    },
    {
      "inputs": [],
      "name": "InvalidEndpointCaller",
      "type": "error"
    },
    {
      "inputs": [],
      "name": "InvalidMinGas",
      "type": "error"
    },
    {
      "inputs": [],
      "name": "InvalidPayload",
      "type": "error"
    },
    {
      "inputs": [],
      "name": "InvalidPendingMevEthShareVault",
      "type": "error"
    },
    {
      "inputs": [],
      "name": "InvalidPendingStakingModule",
      "type": "error"
    },
    {
      "inputs": [],
      "name": "InvalidSender",
      "type": "error"
    },
    {
      "inputs": [],
      "name": "InvalidSourceSendingContract",
      "type": "error"
    },
    {
      "inputs": [],
      "name": "MinGasLimitNotSet",
      "type": "error"
    },
    {
      "inputs": [],
      "name": "NoStoredMessage",
      "type": "error"
    },
    {
      "inputs": [],
      "name": "NoTrustedPath",
      "type": "error"
    },
    {
      "inputs": [],
      "name": "NotEnoughEth",
      "type": "error"
    },
    {
      "inputs": [],
      "name": "OutOfBounds",
      "type": "error"
    },
    {
      "inputs": [],
      "name": "PayloadSizeTooLarge",
      "type": "error"
    },
    {
      "inputs": [],
      "name": "PrematureMevEthShareVaultUpdateFinalization",
      "type": "error"
    },
    {
      "inputs": [],
      "name": "PrematureStakingModuleUpdateFinalization",
      "type": "error"
    },
    {
      "inputs": [],
      "name": "SharedDecimalsTooLarge",
      "type": "error"
    },
    {
      "inputs": [],
      "name": "SliceOverflow",
      "type": "error"
    },
    {
      "inputs": [],
      "name": "StakingPaused",
      "type": "error"
    },
    {
      "inputs": [],
      "name": "TransferExceedsAllowance",
      "type": "error"
    },
    {
      "inputs": [],
      "name": "Unauthorized",
      "type": "error"
    },
    {
      "inputs": [],
      "name": "UnknownPacketType",
      "type": "error"
    },
    {
      "inputs": [],
      "name": "WrongRole",
      "type": "error"
    },
    {
      "inputs": [],
      "name": "ZeroAddress",
      "type": "error"
    },
    {
      "inputs": [],
      "name": "ZeroValue",
      "type": "error"
    },
    {
      "anonymous": false,
      "inputs": [
        {
          "indexed": true,
          "internalType": "address",
          "name": "newAdmin",
          "type": "address"
        }
      ],
      "name": "AdminAdded",
      "type": "event"
    },
    {
      "anonymous": false,
      "inputs": [
        {
          "indexed": true,
          "internalType": "address",
          "name": "oldAdmin",
          "type": "address"
        }
      ],
      "name": "AdminDeleted",
      "type": "event"
    },
    {
      "anonymous": false,
      "inputs": [
        {
          "indexed": true,
          "internalType": "address",
          "name": "owner",
          "type": "address"
        },
        {
          "indexed": true,
          "internalType": "address",
          "name": "spender",
          "type": "address"
        },
        {
          "indexed": false,
          "internalType": "uint256",
          "name": "amount",
          "type": "uint256"
        }
      ],
      "name": "Approval",
      "type": "event"
    },
    {
      "anonymous": false,
      "inputs": [
        {
          "indexed": true,
          "internalType": "uint16",
          "name": "_srcChainId",
          "type": "uint16"
        },
        {
          "indexed": false,
          "internalType": "bytes",
          "name": "_srcAddress",
          "type": "bytes"
        },
        {
          "indexed": false,
          "internalType": "uint64",
          "name": "_nonce",
          "type": "uint64"
        },
        {
          "indexed": false,
          "internalType": "bytes32",
          "name": "_hash",
          "type": "bytes32"
        }
      ],
      "name": "CallOFTReceivedSuccess",
      "type": "event"
    },
    {
      "anonymous": false,
      "inputs": [
        {
          "indexed": true,
          "internalType": "address",
          "name": "caller",
          "type": "address"
        },
        {
          "indexed": true,
          "internalType": "address",
          "name": "owner",
          "type": "address"
        },
        {
          "indexed": false,
          "internalType": "uint256",
          "name": "assets",
          "type": "uint256"
        },
        {
          "indexed": false,
          "internalType": "uint256",
          "name": "shares",
          "type": "uint256"
        }
      ],
      "name": "Deposit",
      "type": "event"
    },
    {
      "anonymous": false,
      "inputs": [
        {
          "indexed": false,
          "internalType": "uint16",
          "name": "_srcChainId",
          "type": "uint16"
        },
        {
          "indexed": false,
          "internalType": "bytes",
          "name": "_srcAddress",
          "type": "bytes"
        },
        {
          "indexed": false,
          "internalType": "uint64",
          "name": "_nonce",
          "type": "uint64"
        },
        {
          "indexed": false,
          "internalType": "bytes",
          "name": "_payload",
          "type": "bytes"
        },
        {
          "indexed": false,
          "internalType": "bytes",
          "name": "_reason",
          "type": "bytes"
        }
      ],
      "name": "MessageFailed",
      "type": "event"
    },
    {
      "anonymous": false,
      "inputs": [
        {
          "indexed": true,
          "internalType": "address",
          "name": "mevEthShareVault",
          "type": "address"
        },
        {
          "indexed": true,
          "internalType": "address",
          "name": "stakingModule",
          "type": "address"
        }
      ],
      "name": "MevEthInitialized",
      "type": "event"
    },
    {
      "anonymous": false,
      "inputs": [
        {
          "indexed": true,
          "internalType": "address",
          "name": "oldVault",
          "type": "address"
        },
        {
          "indexed": true,
          "internalType": "address",
          "name": "newVault",
          "type": "address"
        }
      ],
      "name": "MevEthShareVaultUpdateCanceled",
      "type": "event"
    },
    {
      "anonymous": false,
      "inputs": [
        {
          "indexed": true,
          "internalType": "address",
          "name": "oldVault",
          "type": "address"
        },
        {
          "indexed": true,
          "internalType": "address",
          "name": "pendingVault",
          "type": "address"
        },
        {
          "indexed": true,
          "internalType": "uint64",
          "name": "eligibleForFinalization",
          "type": "uint64"
        }
      ],
      "name": "MevEthShareVaultUpdateCommitted",
      "type": "event"
    },
    {
      "anonymous": false,
      "inputs": [
        {
          "indexed": true,
          "internalType": "address",
          "name": "oldVault",
          "type": "address"
        },
        {
          "indexed": true,
          "internalType": "address",
          "name": "newVault",
          "type": "address"
        }
      ],
      "name": "MevEthShareVaultUpdateFinalized",
      "type": "event"
    },
    {
      "anonymous": false,
      "inputs": [
        {
          "indexed": false,
          "internalType": "address",
          "name": "_address",
          "type": "address"
        }
      ],
      "name": "NonContractAddress",
      "type": "event"
    },
    {
      "anonymous": false,
      "inputs": [
        {
          "indexed": true,
          "internalType": "address",
          "name": "newOperator",
          "type": "address"
        }
      ],
      "name": "OperatorAdded",
      "type": "event"
    },
    {
      "anonymous": false,
      "inputs": [
        {
          "indexed": true,
          "internalType": "address",
          "name": "oldOperator",
          "type": "address"
        }
      ],
      "name": "OperatorDeleted",
      "type": "event"
    },
    {
      "anonymous": false,
      "inputs": [
        {
          "indexed": true,
          "internalType": "uint16",
          "name": "_srcChainId",
          "type": "uint16"
        },
        {
          "indexed": true,
          "internalType": "address",
          "name": "_to",
          "type": "address"
        },
        {
          "indexed": false,
          "internalType": "uint256",
          "name": "_amount",
          "type": "uint256"
        }
      ],
      "name": "ReceiveFromChain",
      "type": "event"
    },
    {
      "anonymous": false,
      "inputs": [
        {
          "indexed": false,
          "internalType": "uint16",
          "name": "_srcChainId",
          "type": "uint16"
        },
        {
          "indexed": false,
          "internalType": "bytes",
          "name": "_srcAddress",
          "type": "bytes"
        },
        {
          "indexed": false,
          "internalType": "uint64",
          "name": "_nonce",
          "type": "uint64"
        },
        {
          "indexed": false,
          "internalType": "bytes32",
          "name": "_payloadHash",
          "type": "bytes32"
        }
      ],
      "name": "RetryMessageSuccess",
      "type": "event"
    },
    {
      "anonymous": false,
      "inputs": [
        {
          "indexed": false,
          "internalType": "address",
          "name": "sender",
          "type": "address"
        },
        {
          "indexed": false,
          "internalType": "uint256",
          "name": "amount",
          "type": "uint256"
        }
      ],
      "name": "Rewards",
      "type": "event"
    },
    {
      "anonymous": false,
      "inputs": [
        {
          "indexed": true,
          "internalType": "uint16",
          "name": "_dstChainId",
          "type": "uint16"
        },
        {
          "indexed": true,
          "internalType": "address",
          "name": "_from",
          "type": "address"
        },
        {
          "indexed": true,
          "internalType": "bytes32",
          "name": "_toAddress",
          "type": "bytes32"
        },
        {
          "indexed": false,
          "internalType": "uint256",
          "name": "_amount",
          "type": "uint256"
        }
      ],
      "name": "SendToChain",
      "type": "event"
    },
    {
      "anonymous": false,
      "inputs": [
        {
          "indexed": false,
          "internalType": "uint16",
          "name": "_dstChainId",
          "type": "uint16"
        },
        {
          "indexed": false,
          "internalType": "uint16",
          "name": "_type",
          "type": "uint16"
        },
        {
          "indexed": false,
          "internalType": "uint256",
          "name": "_minDstGas",
          "type": "uint256"
        }
      ],
      "name": "SetMinDstGas",
      "type": "event"
    },
    {
      "anonymous": false,
      "inputs": [
        {
          "indexed": false,
          "internalType": "address",
          "name": "precrime",
          "type": "address"
        }
      ],
      "name": "SetPrecrime",
      "type": "event"
    },
    {
      "anonymous": false,
      "inputs": [
        {
          "indexed": false,
          "internalType": "uint16",
          "name": "_remoteChainId",
          "type": "uint16"
        },
        {
          "indexed": false,
          "internalType": "bytes",
          "name": "_path",
          "type": "bytes"
        }
      ],
      "name": "SetTrustedRemote",
      "type": "event"
    },
    {
      "anonymous": false,
      "inputs": [
        {
          "indexed": false,
          "internalType": "uint16",
          "name": "_remoteChainId",
          "type": "uint16"
        },
        {
          "indexed": false,
          "internalType": "bytes",
          "name": "_remoteAddress",
          "type": "bytes"
        }
      ],
      "name": "SetTrustedRemoteAddress",
      "type": "event"
    },
    {
      "anonymous": false,
      "inputs": [
        {
          "indexed": false,
          "internalType": "bool",
          "name": "_useCustomAdapterParams",
          "type": "bool"
        }
      ],
      "name": "SetUseCustomAdapterParams",
      "type": "event"
    },
    {
      "anonymous": false,
      "inputs": [
        {
          "indexed": true,
          "internalType": "address",
          "name": "oldModule",
          "type": "address"
        },
        {
          "indexed": true,
          "internalType": "address",
          "name": "pendingModule",
          "type": "address"
        }
      ],
      "name": "StakingModuleUpdateCanceled",
      "type": "event"
    },
    {
      "anonymous": false,
      "inputs": [
        {
          "indexed": true,
          "internalType": "address",
          "name": "oldModule",
          "type": "address"
        },
        {
          "indexed": true,
          "internalType": "address",
          "name": "pendingModule",
          "type": "address"
        },
        {
          "indexed": true,
          "internalType": "uint64",
          "name": "eligibleForFinalization",
          "type": "uint64"
        }
      ],
      "name": "StakingModuleUpdateCommitted",
      "type": "event"
    },
    {
      "anonymous": false,
      "inputs": [
        {
          "indexed": true,
          "internalType": "address",
          "name": "oldModule",
          "type": "address"
        },
        {
          "indexed": true,
          "internalType": "address",
          "name": "newModule",
          "type": "address"
        }
      ],
      "name": "StakingModuleUpdateFinalized",
      "type": "event"
    },
    {
      "anonymous": false,
      "inputs": [],
      "name": "StakingPaused",
      "type": "event"
    },
    {
      "anonymous": false,
      "inputs": [],
      "name": "StakingUnpaused",
      "type": "event"
    },
    {
      "anonymous": false,
      "inputs": [
        {
          "indexed": true,
          "internalType": "address",
          "name": "from",
          "type": "address"
        },
        {
          "indexed": true,
          "internalType": "address",
          "name": "to",
          "type": "address"
        },
        {
          "indexed": false,
          "internalType": "uint256",
          "name": "amount",
          "type": "uint256"
        }
      ],
      "name": "Transfer",
      "type": "event"
    },
    {
      "anonymous": false,
      "inputs": [
        {
          "indexed": false,
          "internalType": "address",
          "name": "sender",
          "type": "address"
        },
        {
          "indexed": false,
          "internalType": "uint256",
          "name": "amount",
          "type": "uint256"
        }
      ],
      "name": "ValidatorWithdraw",
      "type": "event"
    },
    {
      "anonymous": false,
      "inputs": [
        {
          "indexed": true,
          "internalType": "address",
          "name": "caller",
          "type": "address"
        },
        {
          "indexed": true,
          "internalType": "address",
          "name": "receiver",
          "type": "address"
        },
        {
          "indexed": true,
          "internalType": "address",
          "name": "owner",
          "type": "address"
        },
        {
          "indexed": false,
          "internalType": "uint256",
          "name": "assets",
          "type": "uint256"
        },
        {
          "indexed": false,
          "internalType": "uint256",
          "name": "shares",
          "type": "uint256"
        }
      ],
      "name": "Withdraw",
      "type": "event"
    },
    {
      "stateMutability": "payable",
      "type": "fallback"
    },
    {
      "inputs": [],
      "name": "DEFAULT_PAYLOAD_SIZE_LIMIT",
      "outputs": [
        {
          "internalType": "uint256",
          "name": "",
          "type": "uint256"
        }
      ],
      "stateMutability": "view",
      "type": "function"
    },
    {
      "inputs": [],
      "name": "DOMAIN_SEPARATOR",
      "outputs": [
        {
          "internalType": "bytes32",
          "name": "",
          "type": "bytes32"
        }
      ],
      "stateMutability": "view",
      "type": "function"
    },
    {
      "inputs": [],
      "name": "MAX_DEPOSIT",
      "outputs": [
        {
          "internalType": "uint128",
          "name": "",
          "type": "uint128"
        }
      ],
      "stateMutability": "view",
      "type": "function"
    },
    {
      "inputs": [],
      "name": "MIN_DEPOSIT",
      "outputs": [
        {
          "internalType": "uint128",
          "name": "",
          "type": "uint128"
        }
      ],
      "stateMutability": "view",
      "type": "function"
    },
    {
      "inputs": [],
      "name": "MODULE_UPDATE_TIME_DELAY",
      "outputs": [
        {
          "internalType": "uint64",
          "name": "",
          "type": "uint64"
        }
      ],
      "stateMutability": "view",
      "type": "function"
    },
    {
      "inputs": [],
      "name": "NO_EXTRA_GAS",
      "outputs": [
        {
          "internalType": "uint256",
          "name": "",
          "type": "uint256"
        }
      ],
      "stateMutability": "view",
      "type": "function"
    },
    {
      "inputs": [],
      "name": "PT_SEND",
      "outputs": [
        {
          "internalType": "uint8",
          "name": "",
          "type": "uint8"
        }
      ],
      "stateMutability": "view",
      "type": "function"
    },
    {
      "inputs": [],
      "name": "PT_SEND_AND_CALL",
      "outputs": [
        {
          "internalType": "uint8",
          "name": "",
          "type": "uint8"
        }
      ],
      "stateMutability": "view",
      "type": "function"
    },
    {
      "inputs": [],
      "name": "WETH",
      "outputs": [
        {
          "internalType": "contract IWETH",
          "name": "",
          "type": "address"
        }
      ],
      "stateMutability": "view",
      "type": "function"
    },
    {
      "inputs": [
        {
          "internalType": "address",
          "name": "newAdmin",
          "type": "address"
        }
      ],
      "name": "addAdmin",
      "outputs": [],
      "stateMutability": "nonpayable",
      "type": "function"
    },
    {
      "inputs": [
        {
          "internalType": "address",
          "name": "newOperator",
          "type": "address"
        }
      ],
      "name": "addOperator",
      "outputs": [],
      "stateMutability": "nonpayable",
      "type": "function"
    },
    {
      "inputs": [
        {
          "internalType": "address",
          "name": "",
          "type": "address"
        }
      ],
      "name": "admins",
      "outputs": [
        {
          "internalType": "bool",
          "name": "",
          "type": "bool"
        }
      ],
      "stateMutability": "view",
      "type": "function"
    },
    {
      "inputs": [
        {
          "internalType": "address",
          "name": "",
          "type": "address"
        },
        {
          "internalType": "address",
          "name": "",
          "type": "address"
        }
      ],
      "name": "allowance",
      "outputs": [
        {
          "internalType": "uint256",
          "name": "",
          "type": "uint256"
        }
      ],
      "stateMutability": "view",
      "type": "function"
    },
    {
      "inputs": [
        {
          "internalType": "address",
          "name": "spender",
          "type": "address"
        },
        {
          "internalType": "uint256",
          "name": "amount",
          "type": "uint256"
        }
      ],
      "name": "approve",
      "outputs": [
        {
          "internalType": "bool",
          "name": "",
          "type": "bool"
        }
      ],
      "stateMutability": "nonpayable",
      "type": "function"
    },
    {
      "inputs": [],
      "name": "asset",
      "outputs": [
        {
          "internalType": "address",
          "name": "assetTokenAddress",
          "type": "address"
        }
      ],
      "stateMutability": "view",
      "type": "function"
    },
    {
      "inputs": [
        {
          "internalType": "address",
          "name": "",
          "type": "address"
        }
      ],
      "name": "balanceOf",
      "outputs": [
        {
          "internalType": "uint256",
          "name": "",
          "type": "uint256"
        }
      ],
      "stateMutability": "view",
      "type": "function"
    },
    {
      "inputs": [],
      "name": "bufferPercentNumerator",
      "outputs": [
        {
          "internalType": "uint8",
          "name": "",
          "type": "uint8"
        }
      ],
      "stateMutability": "view",
      "type": "function"
    },
    {
      "inputs": [],
      "name": "calculateNeededEtherBuffer",
      "outputs": [
        {
          "internalType": "uint256",
          "name": "",
          "type": "uint256"
        }
      ],
      "stateMutability": "view",
      "type": "function"
    },
    {
      "inputs": [
        {
          "internalType": "uint16",
          "name": "_srcChainId",
          "type": "uint16"
        },
        {
          "internalType": "bytes",
          "name": "_srcAddress",
          "type": "bytes"
        },
        {
          "internalType": "uint64",
          "name": "_nonce",
          "type": "uint64"
        },
        {
          "internalType": "bytes32",
          "name": "_from",
          "type": "bytes32"
        },
        {
          "internalType": "address",
          "name": "_to",
          "type": "address"
        },
        {
          "internalType": "uint256",
          "name": "_amount",
          "type": "uint256"
        },
        {
          "internalType": "bytes",
          "name": "_payload",
          "type": "bytes"
        },
        {
          "internalType": "uint256",
          "name": "_gasForCall",
          "type": "uint256"
        }
      ],
      "name": "callOnOFTReceived",
      "outputs": [],
      "stateMutability": "nonpayable",
      "type": "function"
    },
    {
      "inputs": [],
      "name": "cancelUpdateMevEthShareVault",
      "outputs": [],
      "stateMutability": "nonpayable",
      "type": "function"
    },
    {
      "inputs": [],
      "name": "cancelUpdateStakingModule",
      "outputs": [],
      "stateMutability": "nonpayable",
      "type": "function"
    },
    {
      "inputs": [],
      "name": "circulatingSupply",
      "outputs": [
        {
          "internalType": "uint256",
          "name": "",
          "type": "uint256"
        }
      ],
      "stateMutability": "view",
      "type": "function"
    },
    {
      "inputs": [
        {
          "internalType": "address",
          "name": "newMevEthShareVault",
          "type": "address"
        }
      ],
      "name": "commitUpdateMevEthShareVault",
      "outputs": [],
      "stateMutability": "nonpayable",
      "type": "function"
    },
    {
      "inputs": [
        {
          "internalType": "contract IStakingModule",
          "name": "newModule",
          "type": "address"
        }
      ],
      "name": "commitUpdateStakingModule",
      "outputs": [],
      "stateMutability": "nonpayable",
      "type": "function"
    },
    {
      "inputs": [
        {
          "internalType": "uint256",
          "name": "shares",
          "type": "uint256"
        }
      ],
      "name": "convertToAssets",
      "outputs": [
        {
          "internalType": "uint256",
          "name": "assets",
          "type": "uint256"
        }
      ],
      "stateMutability": "view",
      "type": "function"
    },
    {
      "inputs": [
        {
          "internalType": "uint256",
          "name": "assets",
          "type": "uint256"
        }
      ],
      "name": "convertToShares",
      "outputs": [
        {
          "internalType": "uint256",
          "name": "shares",
          "type": "uint256"
        }
      ],
      "stateMutability": "view",
      "type": "function"
    },
    {
      "inputs": [
        {
          "components": [
            {
              "internalType": "address",
              "name": "operator",
              "type": "address"
            },
            {
              "internalType": "bytes",
              "name": "pubkey",
              "type": "bytes"
            },
            {
              "internalType": "bytes32",
              "name": "withdrawal_credentials",
              "type": "bytes32"
            },
            {
              "internalType": "bytes",
              "name": "signature",
              "type": "bytes"
            },
            {
              "internalType": "bytes32",
              "name": "deposit_data_root",
              "type": "bytes32"
            }
          ],
          "internalType": "struct IStakingModule.ValidatorData",
          "name": "newData",
          "type": "tuple"
        }
      ],
      "name": "createValidator",
      "outputs": [],
      "stateMutability": "nonpayable",
      "type": "function"
    },
    {
      "inputs": [
        {
          "internalType": "uint16",
          "name": "",
          "type": "uint16"
        },
        {
          "internalType": "bytes",
          "name": "",
          "type": "bytes"
        },
        {
          "internalType": "uint64",
          "name": "",
          "type": "uint64"
        }
      ],
      "name": "creditedPackets",
      "outputs": [
        {
          "internalType": "bool",
          "name": "",
          "type": "bool"
        }
      ],
      "stateMutability": "view",
      "type": "function"
    },
    {
      "inputs": [],
      "name": "decimals",
      "outputs": [
        {
          "internalType": "uint8",
          "name": "",
          "type": "uint8"
        }
      ],
      "stateMutability": "view",
      "type": "function"
    },
    {
      "inputs": [
        {
          "internalType": "address",
          "name": "oldAdmin",
          "type": "address"
        }
      ],
      "name": "deleteAdmin",
      "outputs": [],
      "stateMutability": "nonpayable",
      "type": "function"
    },
    {
      "inputs": [
        {
          "internalType": "address",
          "name": "oldOperator",
          "type": "address"
        }
      ],
      "name": "deleteOperator",
      "outputs": [],
      "stateMutability": "nonpayable",
      "type": "function"
    },
    {
      "inputs": [
        {
          "internalType": "uint256",
          "name": "assets",
          "type": "uint256"
        },
        {
          "internalType": "address",
          "name": "receiver",
          "type": "address"
        }
      ],
      "name": "deposit",
      "outputs": [
        {
          "internalType": "uint256",
          "name": "shares",
          "type": "uint256"
        }
      ],
      "stateMutability": "payable",
      "type": "function"
    },
    {
      "inputs": [
        {
          "internalType": "uint16",
          "name": "_dstChainId",
          "type": "uint16"
        },
        {
          "internalType": "bytes32",
          "name": "_toAddress",
          "type": "bytes32"
        },
        {
          "internalType": "uint256",
          "name": "_amount",
          "type": "uint256"
        },
        {
          "internalType": "bytes",
          "name": "_payload",
          "type": "bytes"
        },
        {
          "internalType": "uint64",
          "name": "_dstGasForCall",
          "type": "uint64"
        },
        {
          "internalType": "bool",
          "name": "_useZro",
          "type": "bool"
        },
        {
          "internalType": "bytes",
          "name": "_adapterParams",
          "type": "bytes"
        }
      ],
      "name": "estimateSendAndCallFee",
      "outputs": [
        {
          "internalType": "uint256",
          "name": "nativeFee",
          "type": "uint256"
        },
        {
          "internalType": "uint256",
          "name": "zroFee",
          "type": "uint256"
        }
      ],
      "stateMutability": "view",
      "type": "function"
    },
    {
      "inputs": [
        {
          "internalType": "uint16",
          "name": "_dstChainId",
          "type": "uint16"
        },
        {
          "internalType": "bytes32",
          "name": "_toAddress",
          "type": "bytes32"
        },
        {
          "internalType": "uint256",
          "name": "_amount",
          "type": "uint256"
        },
        {
          "internalType": "bool",
          "name": "_useZro",
          "type": "bool"
        },
        {
          "internalType": "bytes",
          "name": "_adapterParams",
          "type": "bytes"
        }
      ],
      "name": "estimateSendFee",
      "outputs": [
        {
          "internalType": "uint256",
          "name": "nativeFee",
          "type": "uint256"
        },
        {
          "internalType": "uint256",
          "name": "zroFee",
          "type": "uint256"
        }
      ],
      "stateMutability": "view",
      "type": "function"
    },
    {
      "inputs": [
        {
          "internalType": "uint16",
          "name": "",
          "type": "uint16"
        },
        {
          "internalType": "bytes",
          "name": "",
          "type": "bytes"
        },
        {
          "internalType": "uint64",
          "name": "",
          "type": "uint64"
        }
      ],
      "name": "failedMessages",
      "outputs": [
        {
          "internalType": "bytes32",
          "name": "",
          "type": "bytes32"
        }
      ],
      "stateMutability": "view",
      "type": "function"
    },
    {
      "inputs": [],
      "name": "finalizeUpdateMevEthShareVault",
      "outputs": [],
      "stateMutability": "nonpayable",
      "type": "function"
    },
    {
      "inputs": [],
      "name": "finalizeUpdateStakingModule",
      "outputs": [],
      "stateMutability": "nonpayable",
      "type": "function"
    },
    {
      "inputs": [
        {
          "internalType": "uint16",
          "name": "_srcChainId",
          "type": "uint16"
        },
        {
          "internalType": "bytes",
          "name": "_srcAddress",
          "type": "bytes"
        }
      ],
      "name": "forceResumeReceive",
      "outputs": [],
      "stateMutability": "nonpayable",
      "type": "function"
    },
    {
      "inputs": [],
      "name": "fraction",
      "outputs": [
        {
          "internalType": "uint128",
          "name": "elastic",
          "type": "uint128"
        },
        {
          "internalType": "uint128",
          "name": "base",
          "type": "uint128"
        }
      ],
      "stateMutability": "view",
      "type": "function"
    },
    {
      "inputs": [
        {
          "internalType": "uint16",
          "name": "_version",
          "type": "uint16"
        },
        {
          "internalType": "uint16",
          "name": "_chainId",
          "type": "uint16"
        },
        {
          "internalType": "address",
          "name": "",
          "type": "address"
        },
        {
          "internalType": "uint256",
          "name": "_configType",
          "type": "uint256"
        }
      ],
      "name": "getConfig",
      "outputs": [
        {
          "internalType": "bytes",
          "name": "",
          "type": "bytes"
        }
      ],
      "stateMutability": "view",
      "type": "function"
    },
    {
      "inputs": [
        {
          "internalType": "uint16",
          "name": "_remoteChainId",
          "type": "uint16"
        }
      ],
      "name": "getTrustedRemoteAddress",
      "outputs": [
        {
          "internalType": "bytes",
          "name": "",
          "type": "bytes"
        }
      ],
      "stateMutability": "view",
      "type": "function"
    },
    {
      "inputs": [],
      "name": "grantRewards",
      "outputs": [],
      "stateMutability": "payable",
      "type": "function"
    },
    {
      "inputs": [],
      "name": "grantValidatorWithdraw",
      "outputs": [],
      "stateMutability": "payable",
      "type": "function"
    },
    {
      "inputs": [
        {
          "internalType": "address",
          "name": "initialShareVault",
          "type": "address"
        },
        {
          "internalType": "address",
          "name": "initialStakingModule",
          "type": "address"
        }
      ],
      "name": "init",
      "outputs": [],
      "stateMutability": "nonpayable",
      "type": "function"
    },
    {
      "inputs": [],
      "name": "initialized",
      "outputs": [
        {
          "internalType": "bool",
          "name": "",
          "type": "bool"
        }
      ],
      "stateMutability": "view",
      "type": "function"
    },
    {
      "inputs": [
        {
          "internalType": "uint16",
          "name": "_srcChainId",
          "type": "uint16"
        },
        {
          "internalType": "bytes",
          "name": "_srcAddress",
          "type": "bytes"
        }
      ],
      "name": "isTrustedRemote",
      "outputs": [
        {
          "internalType": "bool",
          "name": "",
          "type": "bool"
        }
      ],
      "stateMutability": "view",
      "type": "function"
    },
    {
      "inputs": [],
      "name": "lzEndpoint",
      "outputs": [
        {
          "internalType": "contract ILayerZeroEndpoint",
          "name": "",
          "type": "address"
        }
      ],
      "stateMutability": "view",
      "type": "function"
    },
    {
      "inputs": [
        {
          "internalType": "uint16",
          "name": "_srcChainId",
          "type": "uint16"
        },
        {
          "internalType": "bytes",
          "name": "_srcAddress",
          "type": "bytes"
        },
        {
          "internalType": "uint64",
          "name": "_nonce",
          "type": "uint64"
        },
        {
          "internalType": "bytes",
          "name": "_payload",
          "type": "bytes"
        }
      ],
      "name": "lzReceive",
      "outputs": [],
      "stateMutability": "nonpayable",
      "type": "function"
    },
    {
      "inputs": [
        {
          "internalType": "address",
          "name": "",
          "type": "address"
        }
      ],
      "name": "maxDeposit",
      "outputs": [
        {
          "internalType": "uint256",
          "name": "maxAssets",
          "type": "uint256"
        }
      ],
      "stateMutability": "view",
      "type": "function"
    },
    {
      "inputs": [
        {
          "internalType": "address",
          "name": "",
          "type": "address"
        }
      ],
      "name": "maxMint",
      "outputs": [
        {
          "internalType": "uint256",
          "name": "maxShares",
          "type": "uint256"
        }
      ],
      "stateMutability": "view",
      "type": "function"
    },
    {
      "inputs": [
        {
          "internalType": "address",
          "name": "owner",
          "type": "address"
        }
      ],
      "name": "maxRedeem",
      "outputs": [
        {
          "internalType": "uint256",
          "name": "maxShares",
          "type": "uint256"
        }
      ],
      "stateMutability": "view",
      "type": "function"
    },
    {
      "inputs": [
        {
          "internalType": "address",
          "name": "owner",
          "type": "address"
        }
      ],
      "name": "maxWithdraw",
      "outputs": [
        {
          "internalType": "uint256",
          "name": "maxAssets",
          "type": "uint256"
        }
      ],
      "stateMutability": "view",
      "type": "function"
    },
    {
      "inputs": [],
      "name": "mevEthShareVault",
      "outputs": [
        {
          "internalType": "address",
          "name": "",
          "type": "address"
        }
      ],
      "stateMutability": "view",
      "type": "function"
    },
    {
      "inputs": [
        {
          "internalType": "uint16",
          "name": "",
          "type": "uint16"
        },
        {
          "internalType": "uint16",
          "name": "",
          "type": "uint16"
        }
      ],
      "name": "minDstGasLookup",
      "outputs": [
        {
          "internalType": "uint256",
          "name": "",
          "type": "uint256"
        }
      ],
      "stateMutability": "view",
      "type": "function"
    },
    {
      "inputs": [
        {
          "internalType": "uint256",
          "name": "shares",
          "type": "uint256"
        },
        {
          "internalType": "address",
          "name": "receiver",
          "type": "address"
        }
      ],
      "name": "mint",
      "outputs": [
        {
          "internalType": "uint256",
          "name": "assets",
          "type": "uint256"
        }
      ],
      "stateMutability": "payable",
      "type": "function"
    },
    {
      "inputs": [],
      "name": "name",
      "outputs": [
        {
          "internalType": "string",
          "name": "",
          "type": "string"
        }
      ],
      "stateMutability": "view",
      "type": "function"
    },
    {
      "inputs": [
        {
          "internalType": "uint16",
          "name": "_srcChainId",
          "type": "uint16"
        },
        {
          "internalType": "bytes",
          "name": "_srcAddress",
          "type": "bytes"
        },
        {
          "internalType": "uint64",
          "name": "_nonce",
          "type": "uint64"
        },
        {
          "internalType": "bytes",
          "name": "_payload",
          "type": "bytes"
        }
      ],
      "name": "nonblockingLzReceive",
      "outputs": [],
      "stateMutability": "nonpayable",
      "type": "function"
    },
    {
      "inputs": [
        {
          "internalType": "address",
          "name": "",
          "type": "address"
        }
      ],
      "name": "nonces",
      "outputs": [
        {
          "internalType": "uint256",
          "name": "",
          "type": "uint256"
        }
      ],
      "stateMutability": "view",
      "type": "function"
    },
    {
      "inputs": [
        {
          "internalType": "address",
          "name": "",
          "type": "address"
        }
      ],
      "name": "operators",
      "outputs": [
        {
          "internalType": "bool",
          "name": "",
          "type": "bool"
        }
      ],
      "stateMutability": "view",
      "type": "function"
    },
    {
      "inputs": [],
      "name": "pauseStaking",
      "outputs": [],
      "stateMutability": "nonpayable",
      "type": "function"
    },
    {
      "inputs": [
        {
          "internalType": "uint16",
          "name": "",
          "type": "uint16"
        }
      ],
      "name": "payloadSizeLimitLookup",
      "outputs": [
        {
          "internalType": "uint256",
          "name": "",
          "type": "uint256"
        }
      ],
      "stateMutability": "view",
      "type": "function"
    },
    {
      "inputs": [],
      "name": "pendingMevEthShareVault",
      "outputs": [
        {
          "internalType": "address",
          "name": "",
          "type": "address"
        }
      ],
      "stateMutability": "view",
      "type": "function"
    },
    {
      "inputs": [],
      "name": "pendingMevEthShareVaultCommittedTimestamp",
      "outputs": [
        {
          "internalType": "uint64",
          "name": "",
          "type": "uint64"
        }
      ],
      "stateMutability": "view",
      "type": "function"
    },
    {
      "inputs": [],
      "name": "pendingStakingModule",
      "outputs": [
        {
          "internalType": "contract IStakingModule",
          "name": "",
          "type": "address"
        }
      ],
      "stateMutability": "view",
      "type": "function"
    },
    {
      "inputs": [],
      "name": "pendingStakingModuleCommittedTimestamp",
      "outputs": [
        {
          "internalType": "uint64",
          "name": "",
          "type": "uint64"
        }
      ],
      "stateMutability": "view",
      "type": "function"
    },
    {
      "inputs": [
        {
          "internalType": "address",
          "name": "owner",
          "type": "address"
        },
        {
          "internalType": "address",
          "name": "spender",
          "type": "address"
        },
        {
          "internalType": "uint256",
          "name": "value",
          "type": "uint256"
        },
        {
          "internalType": "uint256",
          "name": "deadline",
          "type": "uint256"
        },
        {
          "internalType": "uint8",
          "name": "v",
          "type": "uint8"
        },
        {
          "internalType": "bytes32",
          "name": "r",
          "type": "bytes32"
        },
        {
          "internalType": "bytes32",
          "name": "s",
          "type": "bytes32"
        }
      ],
      "name": "permit",
      "outputs": [],
      "stateMutability": "nonpayable",
      "type": "function"
    },
    {
      "inputs": [],
      "name": "precrime",
      "outputs": [
        {
          "internalType": "address",
          "name": "",
          "type": "address"
        }
      ],
      "stateMutability": "view",
      "type": "function"
    },
    {
      "inputs": [
        {
          "internalType": "uint256",
          "name": "assets",
          "type": "uint256"
        }
      ],
      "name": "previewDeposit",
      "outputs": [
        {
          "internalType": "uint256",
          "name": "shares",
          "type": "uint256"
        }
      ],
      "stateMutability": "view",
      "type": "function"
    },
    {
      "inputs": [
        {
          "internalType": "uint256",
          "name": "shares",
          "type": "uint256"
        }
      ],
      "name": "previewMint",
      "outputs": [
        {
          "internalType": "uint256",
          "name": "assets",
          "type": "uint256"
        }
      ],
      "stateMutability": "view",
      "type": "function"
    },
    {
      "inputs": [
        {
          "internalType": "uint256",
          "name": "shares",
          "type": "uint256"
        }
      ],
      "name": "previewRedeem",
      "outputs": [
        {
          "internalType": "uint256",
          "name": "assets",
          "type": "uint256"
        }
      ],
      "stateMutability": "view",
      "type": "function"
    },
    {
      "inputs": [
        {
          "internalType": "uint256",
          "name": "assets",
          "type": "uint256"
        }
      ],
      "name": "previewWithdraw",
      "outputs": [
        {
          "internalType": "uint256",
          "name": "shares",
          "type": "uint256"
        }
      ],
      "stateMutability": "view",
      "type": "function"
    },
    {
      "inputs": [
        {
          "internalType": "uint256",
          "name": "shares",
          "type": "uint256"
        },
        {
          "internalType": "address",
          "name": "receiver",
          "type": "address"
        },
        {
          "internalType": "address",
          "name": "owner",
          "type": "address"
        }
      ],
      "name": "redeem",
      "outputs": [
        {
          "internalType": "uint256",
          "name": "assets",
          "type": "uint256"
        }
      ],
      "stateMutability": "nonpayable",
      "type": "function"
    },
    {
      "inputs": [
        {
          "internalType": "uint16",
          "name": "_srcChainId",
          "type": "uint16"
        },
        {
          "internalType": "bytes",
          "name": "_srcAddress",
          "type": "bytes"
        },
        {
          "internalType": "uint64",
          "name": "_nonce",
          "type": "uint64"
        },
        {
          "internalType": "bytes",
          "name": "_payload",
          "type": "bytes"
        }
      ],
      "name": "retryMessage",
      "outputs": [],
      "stateMutability": "payable",
      "type": "function"
    },
    {
      "inputs": [
        {
          "internalType": "address",
          "name": "_from",
          "type": "address"
        },
        {
          "internalType": "uint16",
          "name": "_dstChainId",
          "type": "uint16"
        },
        {
          "internalType": "bytes32",
          "name": "_toAddress",
          "type": "bytes32"
        },
        {
          "internalType": "uint256",
          "name": "_amount",
          "type": "uint256"
        },
        {
          "internalType": "bytes",
          "name": "_payload",
          "type": "bytes"
        },
        {
          "internalType": "uint64",
          "name": "_dstGasForCall",
          "type": "uint64"
        },
        {
          "components": [
            {
              "internalType": "address payable",
              "name": "refundAddress",
              "type": "address"
            },
            {
              "internalType": "address",
              "name": "zroPaymentAddress",
              "type": "address"
            },
            {
              "internalType": "bytes",
              "name": "adapterParams",
              "type": "bytes"
            }
          ],
          "internalType": "struct ICommonOFT.LzCallParams",
          "name": "_callParams",
          "type": "tuple"
        }
      ],
      "name": "sendAndCall",
      "outputs": [],
      "stateMutability": "payable",
      "type": "function"
    },
    {
      "inputs": [
        {
          "internalType": "address",
          "name": "_from",
          "type": "address"
        },
        {
          "internalType": "uint16",
          "name": "_dstChainId",
          "type": "uint16"
        },
        {
          "internalType": "bytes32",
          "name": "_toAddress",
          "type": "bytes32"
        },
        {
          "internalType": "uint256",
          "name": "_amount",
          "type": "uint256"
        },
        {
          "components": [
            {
              "internalType": "address payable",
              "name": "refundAddress",
              "type": "address"
            },
            {
              "internalType": "address",
              "name": "zroPaymentAddress",
              "type": "address"
            },
            {
              "internalType": "bytes",
              "name": "adapterParams",
              "type": "bytes"
            }
          ],
          "internalType": "struct ICommonOFT.LzCallParams",
          "name": "_callParams",
          "type": "tuple"
        }
      ],
      "name": "sendFrom",
      "outputs": [],
      "stateMutability": "payable",
      "type": "function"
    },
    {
      "inputs": [
        {
          "internalType": "uint16",
          "name": "_version",
          "type": "uint16"
        },
        {
          "internalType": "uint16",
          "name": "_chainId",
          "type": "uint16"
        },
        {
          "internalType": "uint256",
          "name": "_configType",
          "type": "uint256"
        },
        {
          "internalType": "bytes",
          "name": "_config",
          "type": "bytes"
        }
      ],
      "name": "setConfig",
      "outputs": [],
      "stateMutability": "nonpayable",
      "type": "function"
    },
    {
      "inputs": [
        {
          "internalType": "uint16",
          "name": "_dstChainId",
          "type": "uint16"
        },
        {
          "internalType": "uint16",
          "name": "_packetType",
          "type": "uint16"
        },
        {
          "internalType": "uint256",
          "name": "_minGas",
          "type": "uint256"
        }
      ],
      "name": "setMinDstGas",
      "outputs": [],
      "stateMutability": "nonpayable",
      "type": "function"
    },
    {
      "inputs": [
        {
          "internalType": "uint16",
          "name": "_dstChainId",
          "type": "uint16"
        },
        {
          "internalType": "uint256",
          "name": "_size",
          "type": "uint256"
        }
      ],
      "name": "setPayloadSizeLimit",
      "outputs": [],
      "stateMutability": "nonpayable",
      "type": "function"
    },
    {
      "inputs": [
        {
          "internalType": "address",
          "name": "_precrime",
          "type": "address"
        }
      ],
      "name": "setPrecrime",
      "outputs": [],
      "stateMutability": "nonpayable",
      "type": "function"
    },
    {
      "inputs": [
        {
          "internalType": "uint16",
          "name": "_version",
          "type": "uint16"
        }
      ],
      "name": "setReceiveVersion",
      "outputs": [],
      "stateMutability": "nonpayable",
      "type": "function"
    },
    {
      "inputs": [
        {
          "internalType": "uint16",
          "name": "_version",
          "type": "uint16"
        }
      ],
      "name": "setSendVersion",
      "outputs": [],
      "stateMutability": "nonpayable",
      "type": "function"
    },
    {
      "inputs": [
        {
          "internalType": "uint16",
          "name": "_remoteChainId",
          "type": "uint16"
        },
        {
          "internalType": "bytes",
          "name": "_path",
          "type": "bytes"
        }
      ],
      "name": "setTrustedRemote",
      "outputs": [],
      "stateMutability": "nonpayable",
      "type": "function"
    },
    {
      "inputs": [
        {
          "internalType": "uint16",
          "name": "_remoteChainId",
          "type": "uint16"
        },
        {
          "internalType": "bytes",
          "name": "_remoteAddress",
          "type": "bytes"
        }
      ],
      "name": "setTrustedRemoteAddress",
      "outputs": [],
      "stateMutability": "nonpayable",
      "type": "function"
    },
    {
      "inputs": [
        {
          "internalType": "bool",
          "name": "_useCustomAdapterParams",
          "type": "bool"
        }
      ],
      "name": "setUseCustomAdapterParams",
      "outputs": [],
      "stateMutability": "nonpayable",
      "type": "function"
    },
    {
      "inputs": [],
      "name": "sharedDecimals",
      "outputs": [
        {
          "internalType": "uint8",
          "name": "",
          "type": "uint8"
        }
      ],
      "stateMutability": "view",
      "type": "function"
    },
    {
      "inputs": [],
      "name": "stakingModule",
      "outputs": [
        {
          "internalType": "contract IStakingModule",
          "name": "",
          "type": "address"
        }
      ],
      "stateMutability": "view",
      "type": "function"
    },
    {
      "inputs": [],
      "name": "stakingPaused",
      "outputs": [
        {
          "internalType": "bool",
          "name": "",
          "type": "bool"
        }
      ],
      "stateMutability": "view",
      "type": "function"
    },
    {
      "inputs": [
        {
          "internalType": "bytes4",
          "name": "interfaceId",
          "type": "bytes4"
        }
      ],
      "name": "supportsInterface",
      "outputs": [
        {
          "internalType": "bool",
          "name": "",
          "type": "bool"
        }
      ],
      "stateMutability": "view",
      "type": "function"
    },
    {
      "inputs": [],
      "name": "symbol",
      "outputs": [
        {
          "internalType": "string",
          "name": "",
          "type": "string"
        }
      ],
      "stateMutability": "view",
      "type": "function"
    },
    {
      "inputs": [],
      "name": "token",
      "outputs": [
        {
          "internalType": "address",
          "name": "",
          "type": "address"
        }
      ],
      "stateMutability": "view",
      "type": "function"
    },
    {
      "inputs": [],
      "name": "totalAssets",
      "outputs": [
        {
          "internalType": "uint256",
          "name": "totalManagedAssets",
          "type": "uint256"
        }
      ],
      "stateMutability": "view",
      "type": "function"
    },
    {
      "inputs": [],
      "name": "totalSupply",
      "outputs": [
        {
          "internalType": "uint256",
          "name": "",
          "type": "uint256"
        }
      ],
      "stateMutability": "view",
      "type": "function"
    },
    {
      "inputs": [
        {
          "internalType": "address",
          "name": "to",
          "type": "address"
        },
        {
          "internalType": "uint256",
          "name": "amount",
          "type": "uint256"
        }
      ],
      "name": "transfer",
      "outputs": [
        {
          "internalType": "bool",
          "name": "",
          "type": "bool"
        }
      ],
      "stateMutability": "nonpayable",
      "type": "function"
    },
    {
      "inputs": [
        {
          "internalType": "address",
          "name": "from",
          "type": "address"
        },
        {
          "internalType": "address",
          "name": "to",
          "type": "address"
        },
        {
          "internalType": "uint256",
          "name": "amount",
          "type": "uint256"
        }
      ],
      "name": "transferFrom",
      "outputs": [
        {
          "internalType": "bool",
          "name": "",
          "type": "bool"
        }
      ],
      "stateMutability": "nonpayable",
      "type": "function"
    },
    {
      "inputs": [
        {
          "internalType": "uint16",
          "name": "",
          "type": "uint16"
        }
      ],
      "name": "trustedRemoteLookup",
      "outputs": [
        {
          "internalType": "bytes",
          "name": "",
          "type": "bytes"
        }
      ],
      "stateMutability": "view",
      "type": "function"
    },
    {
      "inputs": [],
      "name": "unpauseStaking",
      "outputs": [],
      "stateMutability": "nonpayable",
      "type": "function"
    },
    {
      "inputs": [
        {
          "internalType": "uint8",
          "name": "newBufferPercentNumerator",
          "type": "uint8"
        }
      ],
      "name": "updateBufferPercentNumerator",
      "outputs": [],
      "stateMutability": "nonpayable",
      "type": "function"
    },
    {
      "inputs": [],
      "name": "useCustomAdapterParams",
      "outputs": [
        {
          "internalType": "bool",
          "name": "",
          "type": "bool"
        }
      ],
      "stateMutability": "view",
      "type": "function"
    },
    {
      "inputs": [
        {
          "internalType": "uint256",
          "name": "assets",
          "type": "uint256"
        },
        {
          "internalType": "address",
          "name": "receiver",
          "type": "address"
        },
        {
          "internalType": "address",
          "name": "owner",
          "type": "address"
        }
      ],
      "name": "withdraw",
      "outputs": [
        {
          "internalType": "uint256",
          "name": "shares",
          "type": "uint256"
        }
      ],
      "stateMutability": "nonpayable",
      "type": "function"
    },
    {
      "stateMutability": "payable",
      "type": "receive"
    }
  ],
  "bytecode": {
    "object": "0x6101606040523480156200001257600080fd5b50604051620066e2380380620066e283398101604081905262000035916200023c565b604080518082018252601781527f4d6576204c6971756964205374616b65642045746865720000000000000000006020808301919091528251808401845260068152650dacaec8aa8960d31b818301526001600160a01b0380881660009081526001808552868220805460ff199081168317909155948290529590208054909316909417909155918316608052600860a081905290919060129086858585856009620000e284826200032b565b50600a620000f183826200032b565b5060ff811660c0524660e0526200010762000183565b6101005250505060ff80851690841611156200013657604051634712720d60e01b815260040160405180910390fd5b6200014283856200040d565b6200014f90600a6200052c565b61012052505050506001600160a01b0393909316610140525050600f805462ff000019166202000017905550620005c29050565b60007f8b73c3c69bb8fe3d512ecc4cf759cc79239f7b179b0ffacaa9a75d522b39400f6009604051620001b7919062000544565b6040805191829003822060208301939093528101919091527fc89efdaa54c0f20c7adf612882df0950f5a951637e0307cdcb4c672f298b8bc660608201524660808201523060a082015260c00160405160208183030381529060405280519060200120905090565b80516001600160a01b03811681146200023757600080fd5b919050565b6000806000606084860312156200025257600080fd5b6200025d846200021f565b92506200026d602085016200021f565b91506200027d604085016200021f565b90509250925092565b634e487b7160e01b600052604160045260246000fd5b600181811c90821680620002b157607f821691505b602082108103620002d257634e487b7160e01b600052602260045260246000fd5b50919050565b601f8211156200032657600081815260208120601f850160051c81016020861015620003015750805b601f850160051c820191505b8181101562000322578281556001016200030d565b5050505b505050565b81516001600160401b0381111562000347576200034762000286565b6200035f816200035884546200029c565b84620002d8565b602080601f8311600181146200039757600084156200037e5750858301515b600019600386901b1c1916600185901b17855562000322565b600085815260208120601f198616915b82811015620003c857888601518255948401946001909101908401620003a7565b5085821015620003e75787850151600019600388901b60f8161c191681555b5050505050600190811b01905550565b634e487b7160e01b600052601160045260246000fd5b60ff8281168282160390811115620004295762000429620003f7565b92915050565b600181815b8085111562000470578160001904821115620004545762000454620003f7565b808516156200046257918102915b93841c939080029062000434565b509250929050565b600082620004895750600162000429565b81620004985750600062000429565b8160018114620004b15760028114620004bc57620004dc565b600191505062000429565b60ff841115620004d057620004d0620003f7565b50506001821b62000429565b5060208310610133831016604e8410600b841016171562000501575081810a62000429565b6200050d83836200042f565b8060001904821115620005245762000524620003f7565b029392505050565b60006200053d60ff84168362000478565b9392505050565b600080835462000554816200029c565b600182811680156200056f57600181146200058557620005b6565b60ff1984168752821515830287019450620005b6565b8760005260208060002060005b85811015620005ad5781548a82015290840190820162000592565b50505082870194505b50929695505050505050565b60805160a05160c05160e051610100516101205161014051616039620006a960003960008181610587015281816105d2015281816108d301528181610ea5015281816129b501528181612a3301528181612b9e01528181612c1c01528181613dfd0152613e3b0152600081816143ea015281816147410152614b120152600061192f015260006118fa0152600061085801526000610c60015260008181610ed9015281816112d8015281816115f80152818161176501528181611adc01528181612f80015281816138e201528181613c4a015281816140e3015261488c01526160396000f3fe6080604052600436106105775760003560e01c806394bf804d116102d8578063c6e6f59211610180578063e1e158a5116100e7578063ef8b30f7116100a0578063f999c5061161007a578063f999c5061461127d578063f9cc45f214611292578063fc0c546a146112b2578063fe183211146112c5576105c7565b8063ef8b30f714610741578063f09a40161461123d578063f5ecbdbc1461125d576105c7565b8063e1e158a514611193578063e6a20ae6146111ae578063eab45d9c146111c3578063eaffd49a146111e3578063eb8d72b714611203578063ed629c5c14611223576105c7565b8063d8894bb511610139578063d8894bb514611088578063d905777e146110d3578063dd5967c3146110f3578063dd62ed3e14611126578063ddc2f1ab1461115e578063df2a5b3b14611173576105c7565b8063c6e6f59214610fd5578063cbed8b9c14610ff5578063ce96cb7714611015578063d02aaa6514611035578063d1deba1f14611055578063d505accf14611068576105c7565b8063aa1cb3761161023f578063ba087652116101f8578063bbbad849116101d2578063bbbad84914610f95578063bc74efe814610faa578063c446183414610fbf578063c63d75b614610997576105c7565b8063ba08765214610f3b578063baf3292d14610f5b578063bbb781cc14610f7b576105c7565b8063aa1cb37614610e73578063ad5c464814610e93578063b353aaa714610ec7578063b3d7f6b914610a51578063b40992a114610efb578063b460af9414610f1b576105c7565b80639ed89c91116102915780639ed89c9114610dbe5780639f38369a14610dd3578063a4c51df514610df3578063a67add5314610e13578063a6c3d16514610e33578063a9059cbb14610e53576105c7565b806394bf804d14610ce4578063950c8a7414610cf757806395849aa414610d1757806395d89b4114610d375780639870d7fe14610d4c5780639bdb981214610d6c576105c7565b8063429b62e51161043b5780636e553f65116103a257806376203b481161035b578063857749b011610335578063857749b014610c4e5780638cfd8f5c14610c825780639358928b14610cba57806393f4bcde14610ccf576105c7565b806376203b4814610bf95780637ecebe0014610c0c57806382b9ebaa14610c39576105c7565b80636e553f6514610b425780636fcc2d9814610b555780637048027514610b6c57806370a0823114610b8c57806372cf775114610bb95780637533d78814610bd9576105c7565b8063504b82bf116103f4578063504b82bf14610a71578063558cb7f714610a915780635b8c41e614610a9957806366ad5c8a14610ae8578063695ef6bf14610b085780636a4c661814610b1b576105c7565b8063429b62e5146109b757806342d65a8d146109e75780634477051514610a075780634806fca714610a1c5780634c42899a14610a3c5780634cdad50614610a51576105c7565b8063158ef93e116104df578063365260b411610498578063365260b41461088f57806338d52e0f146108c45780633cb5c5881461090b5780633d8b38f61461094a5780633f1f4fa41461096a578063402d267d14610997576105c7565b8063158ef93e146107d157806318160ddd146107f057806323b872dd1461080657806327e1f7df14610826578063313ce567146108465780633644e5151461087a576105c7565b806307e0db171161053157806307e0db1714610701578063095ea7b3146107215780630a28a477146107415780630df374831461076157806310ddb1371461078157806313e7c9d8146107a1576105c7565b80621d35671461061057806301e1d1141461063057806301ffc9a71461065d57806306fdde031461068d57806307a2d13a146106af57806307a54f59146106cf576105c7565b366105c757336001600160a01b037f000000000000000000000000000000000000000000000000000000000000000016146105c557604051636edaef2f60e11b815260040160405180910390fd5b005b336001600160a01b037f000000000000000000000000000000000000000000000000000000000000000016146105c557604051636edaef2f60e11b815260040160405180910390fd5b34801561061c57600080fd5b506105c561062b366004614df2565b6112cd565b34801561063c57600080fd5b506014546001600160801b03165b6040519081526020015b60405180910390f35b34801561066957600080fd5b5061067d610678366004614e85565b611489565b6040519015158152602001610654565b34801561069957600080fd5b506106a26114c0565b6040516106549190614eff565b3480156106bb57600080fd5b5061064a6106ca366004614f12565b61154e565b3480156106db57600080fd5b50600f546106ef9062010000900460ff1681565b60405160ff9091168152602001610654565b34801561070d57600080fd5b506105c561071c366004614f2b565b6115b0565b34801561072d57600080fd5b5061067d61073c366004614f5b565b611660565b34801561074d57600080fd5b5061064a61075c366004614f12565b6116cc565b34801561076d57600080fd5b506105c561077c366004614f87565b6116d7565b34801561078d57600080fd5b506105c561079c366004614f2b565b61171d565b3480156107ad57600080fd5b5061067d6107bc366004614fa3565b60006020819052908152604090205460ff1681565b3480156107dd57600080fd5b50600f5461067d90610100900460ff1681565b3480156107fc57600080fd5b5061064a600b5481565b34801561081257600080fd5b5061067d610821366004614fc0565b61179c565b34801561083257600080fd5b506105c5610841366004614fa3565b61187e565b34801561085257600080fd5b506106ef7f000000000000000000000000000000000000000000000000000000000000000081565b34801561088657600080fd5b5061064a6118f6565b34801561089b57600080fd5b506108af6108aa366004615011565b611951565b60408051928352602083019190915201610654565b3480156108d057600080fd5b507f00000000000000000000000000000000000000000000000000000000000000005b6040516001600160a01b039091168152602001610654565b34801561091757600080fd5b50600f5461093290630100000090046001600160401b031681565b6040516001600160401b039091168152602001610654565b34801561095657600080fd5b5061067d610965366004615076565b6119a6565b34801561097657600080fd5b5061064a610985366004614f2b565b60046020526000908152604090205481565b3480156109a357600080fd5b5061064a6109b2366004614fa3565b611a72565b3480156109c357600080fd5b5061067d6109d2366004614fa3565b60016020526000908152604090205460ff1681565b3480156109f357600080fd5b506105c5610a02366004615076565b611a96565b348015610a1357600080fd5b5061064a600081565b348015610a2857600080fd5b506105c5610a373660046150d9565b611b43565b348015610a4857600080fd5b506106ef600081565b348015610a5d57600080fd5b5061064a610a6c366004614f12565b611b90565b348015610a7d57600080fd5b506012546108f3906001600160a01b031681565b6105c5611b9b565b348015610aa557600080fd5b5061064a610ab4366004615161565b6006602090815260009384526040808520845180860184018051928152908401958401959095209452929052825290205481565b348015610af457600080fd5b506105c5610b03366004614df2565b611c22565b6105c5610b16366004615219565b611cbf565b348015610b2757600080fd5b50600f5461093290600160581b90046001600160401b031681565b61064a610b5036600461528c565b611d2a565b348015610b6157600080fd5b5061093262093a8081565b348015610b7857600080fd5b506105c5610b87366004614fa3565b611e16565b348015610b9857600080fd5b5061064a610ba7366004614fa3565b600c6020526000908152604090205481565b348015610bc557600080fd5b506013546108f3906001600160a01b031681565b348015610be557600080fd5b506106a2610bf4366004614f2b565b611e94565b6105c5610c073660046152bc565b611ead565b348015610c1857600080fd5b5061064a610c27366004614fa3565b600e6020526000908152604090205481565b348015610c4557600080fd5b5061064a611f5c565b348015610c5a57600080fd5b506106ef7f000000000000000000000000000000000000000000000000000000000000000081565b348015610c8e57600080fd5b5061064a610c9d36600461536e565b600360209081526000928352604080842090915290825290205481565b348015610cc657600080fd5b50600b5461064a565b348015610cdb57600080fd5b506105c5611f91565b61064a610cf236600461528c565b611ff5565b348015610d0357600080fd5b506005546108f3906001600160a01b031681565b348015610d2357600080fd5b506105c5610d32366004614fa3565b6120d7565b348015610d4357600080fd5b506106a26121a6565b348015610d5857600080fd5b506105c5610d67366004614fa3565b6121b3565b348015610d7857600080fd5b5061067d610d87366004615161565b6008602090815260009384526040808520845180860184018051928152908401958401959095209452929052825290205460ff1681565b348015610dca57600080fd5b506105c561222e565b348015610ddf57600080fd5b506106a2610dee366004614f2b565b612369565b348015610dff57600080fd5b506108af610e0e3660046153a1565b612449565b348015610e1f57600080fd5b506105c5610e2e36600461545a565b6124d8565b348015610e3f57600080fd5b506105c5610e4e366004615076565b612618565b348015610e5f57600080fd5b5061067d610e6e366004614f5b565b6126c8565b348015610e7f57600080fd5b506105c5610e8e366004614fa3565b61272e565b348015610e9f57600080fd5b506108f37f000000000000000000000000000000000000000000000000000000000000000081565b348015610ed357600080fd5b506108f37f000000000000000000000000000000000000000000000000000000000000000081565b348015610f0757600080fd5b506105c5610f16366004614fa3565b6127fd565b348015610f2757600080fd5b5061064a610f36366004615494565b612875565b348015610f4757600080fd5b5061064a610f56366004615494565b612a5e565b348015610f6757600080fd5b506105c5610f76366004614fa3565b612c47565b348015610f8757600080fd5b50600f5461067d9060ff1681565b348015610fa157600080fd5b506105c5612ccb565b348015610fb657600080fd5b506105c5612da5565b348015610fcb57600080fd5b5061064a61271081565b348015610fe157600080fd5b5061064a610ff0366004614f12565b612ee0565b34801561100157600080fd5b506105c56110103660046154d6565b612f3a565b34801561102157600080fd5b5061064a611030366004614fa3565b612feb565b34801561104157600080fd5b506011546108f3906001600160a01b031681565b6105c5611063366004614df2565b613018565b34801561107457600080fd5b506105c5611083366004615544565b6131ba565b34801561109457600080fd5b506014546110b3906001600160801b0380821691600160801b90041682565b604080516001600160801b03938416815292909116602083015201610654565b3480156110df57600080fd5b5061064a6110ee366004614fa3565b613404565b3480156110ff57600080fd5b5061110e6001600160801b0381565b6040516001600160801b039091168152602001610654565b34801561113257600080fd5b5061064a6111413660046155b2565b600d60209081526000928352604080842090915290825290205481565b34801561116a57600080fd5b506105c5613430565b34801561117f57600080fd5b506105c561118e3660046155e0565b61350a565b34801561119f57600080fd5b5061110e662386f26fc1000081565b3480156111ba57600080fd5b506106ef600181565b3480156111cf57600080fd5b506105c56111de36600461561c565b6135bc565b3480156111ef57600080fd5b506105c56111fe366004615637565b61362c565b34801561120f57600080fd5b506105c561121e366004615076565b61371c565b34801561122f57600080fd5b5060075461067d9060ff1681565b34801561124957600080fd5b506105c56112583660046155b2565b61379d565b34801561126957600080fd5b506106a26112783660046156ff565b6138b1565b34801561128957600080fd5b506105c5613962565b34801561129e57600080fd5b506010546108f3906001600160a01b031681565b3480156112be57600080fd5b50306108f3565b6105c56139c9565b336001600160a01b037f0000000000000000000000000000000000000000000000000000000000000000161461131657604051630d1ad4cd60e01b815260040160405180910390fd5b61ffff8616600090815260026020526040812080546113349061574c565b80601f01602080910402602001604051908101604052809291908181526020018280546113609061574c565b80156113ad5780601f10611382576101008083540402835291602001916113ad565b820191906000526020600020905b81548152906001019060200180831161139057829003601f168201915b50508351939450505050851415806113c457508051155b806113ec5750805160208201206040516113e19088908890615780565b604051809103902014155b1561140a57604051631935e28160e11b815260040160405180910390fd5b6114808787878080601f01602080910402602001604051908101604052809392919081815260200183838082843760009201919091525050604080516020601f8a018190048102820181019092528881528a935091508890889081908401838280828437600092019190915250613acf92505050565b50505050505050565b60006001600160e01b03198216631f7ecdf760e01b14806114ba57506301ffc9a760e01b6001600160e01b03198316145b92915050565b600980546114cd9061574c565b80601f01602080910402602001604051908101604052809291908181526020018280546114f99061574c565b80156115465780601f1061151b57610100808354040283529160200191611546565b820191906000526020600020905b81548152906001019060200180831161152957829003601f168201915b505050505081565b6014546000906001600160801b031615806115795750601454600160801b90046001600160801b0316155b15611582575090565b6014546001600160801b03600160801b8204811691168302816115a7576115a7615790565b0490505b919050565b3360009081526001602052604090205460ff166115df576040516282b42960e81b815260040160405180910390fd5b6040516307e0db1760e01b815261ffff821660048201527f00000000000000000000000000000000000000000000000000000000000000006001600160a01b0316906307e0db17906024015b600060405180830381600087803b15801561164557600080fd5b505af1158015611659573d6000803e3d6000fd5b5050505050565b336000818152600d602090815260408083206001600160a01b038716808552925280832085905551919290917f8c5be1e5ebec7d5bd14f71427d1e84f3dd0314c0f7b2291e5b200ac8c7c3b925906116bb9086815260200190565b60405180910390a350600192915050565b60006114ba82612ee0565b3360009081526001602052604090205460ff16611706576040516282b42960e81b815260040160405180910390fd5b61ffff909116600090815260046020526040902055565b3360009081526001602052604090205460ff1661174c576040516282b42960e81b815260040160405180910390fd5b6040516310ddb13760e01b815261ffff821660048201527f00000000000000000000000000000000000000000000000000000000000000006001600160a01b0316906310ddb1379060240161162b565b6001600160a01b0383166000908152600d6020908152604080832033845290915281205460001981146117f8576117d383826157bc565b6001600160a01b0386166000908152600d602090815260408083203384529091529020555b6001600160a01b0385166000908152600c6020526040812080548592906118209084906157bc565b90915550506001600160a01b038085166000818152600c602052604090819020805487019055519091871690600080516020615fe4833981519152906118699087815260200190565b60405180910390a360019150505b9392505050565b3360009081526001602052604090205460ff166118ad576040516282b42960e81b815260040160405180910390fd5b6001600160a01b038116600081815260016020526040808220805460ff19169055517f989ddfce057dad219e0ae16f691b121bb0e348f0d8ae0ad400b4d5ac8d616c8b9190a250565b60007f0000000000000000000000000000000000000000000000000000000000000000461461192c57611927613b48565b905090565b507f000000000000000000000000000000000000000000000000000000000000000090565b6000806119978888888888888080601f016020809104026020016040519081016040528093929190818152602001838380828437600092019190915250613be292505050565b91509150965096945050505050565b61ffff8316600090815260026020526040812080548291906119c79061574c565b80601f01602080910402602001604051908101604052809291908181526020018280546119f39061574c565b8015611a405780601f10611a1557610100808354040283529160200191611a40565b820191906000526020600020905b815481529060010190602001808311611a2357829003601f168201915b505050505090508383604051611a57929190615780565b60405180910390208180519060200120149150509392505050565b600f5460009060ff1615611a8857506000919050565b506001600160801b03919050565b3360009081526001602052604090205460ff16611ac5576040516282b42960e81b815260040160405180910390fd5b6040516342d65a8d60e01b81526001600160a01b037f000000000000000000000000000000000000000000000000000000000000000016906342d65a8d90611b15908690869086906004016157f8565b600060405180830381600087803b158015611b2f57600080fd5b505af1158015611480573d6000803e3d6000fd5b3360009081526001602052604090205460ff16611b72576040516282b42960e81b815260040160405180910390fd5b600f805460ff909216620100000262ff000019909216919091179055565b60006114ba8261154e565b601480546001600160801b03198116346001600160801b03928316019091161790556010546001600160a01b03163314611be857604051636edaef2f60e11b815260040160405180910390fd5b604080513381523460208201527fc083a1647e3ee591bf42b82564ffb4d16fdbb26068f0080da911c8d8300fd84a910160405180910390a1565b333014611c415760405162e4f81560e51b815260040160405180910390fd5b611cb78686868080601f01602080910402602001604051908101604052809392919081815260200183838082843760009201919091525050604080516020601f890181900481028201810190925287815289935091508790879081908401838280828437600092019190915250613cd692505050565b505050505050565b611cb785858585611cd36020870187614fa3565b611ce36040880160208901614fa3565b611cf06040890189615816565b8080601f016020809104026020016040519081016040528093929190818152602001838380828437600092019190915250613d2e92505050565b600f5460009060ff1615611d51576040516326d1807b60e01b815260040160405180910390fd5b662386f26fc10000831015611d7957604051636ba4a1c760e01b815260040160405180910390fd5b611d8283612ee0565b60148054600160801b6001600160801b03808316880181166001600160801b031990931683178290048116850116021790559050611dbf83613deb565b611dc98282613eab565b60408051848152602081018390526001600160a01b0384169133917fdcbc1c05240f31ff3ad067ef1ee35ce4997762752e3a095284754544f4c709d791015b60405180910390a392915050565b3360009081526001602052604090205460ff16611e45576040516282b42960e81b815260040160405180910390fd5b6001600160a01b0381166000818152600160208190526040808320805460ff1916909217909155517f44d6d25963f097ad14f29f06854a01f575648a1ef82f30e562ccd3889717e3399190a250565b600260205260009081526040902080546114cd9061574c565b611f518888888888888080601f0160208091040260200160405190810160405280939291908181526020018383808284376000920191909152508a9250611efa9150506020890189614fa3565b611f0a60408a0160208b01614fa3565b611f1760408b018b615816565b8080601f016020809104026020016040519081016040528093929190818152602001838380828437600092019190915250613f0592505050565b505050505050505050565b600f546014546000916119279160649162010000900460ff166001600160801b0390911602046801ae361fc1451c0000613fd6565b3360009081526001602052604090205460ff16611fc0576040516282b42960e81b815260040160405180910390fd5b600f805460ff191690556040517fa75958c26fdcd449db08b7c754dcddd7a15b023665ee9dbd2ef62d8e1befaa4a90600090a1565b600f5460009060ff161561201c576040516326d1807b60e01b815260040160405180910390fd5b662386f26fc1000083101561204457604051636ba4a1c760e01b815260040160405180910390fd5b61204d8361154e565b60148054600160801b6001600160801b03808316850181166001600160801b03199093168317829004811688011602179055905061208a81613deb565b6120948284613eab565b60408051828152602081018590526001600160a01b0384169133917fdcbc1c05240f31ff3ad067ef1ee35ce4997762752e3a095284754544f4c709d79101611e08565b3360009081526001602052604090205460ff16612106576040516282b42960e81b815260040160405180910390fd5b601380546001600160a01b0319166001600160a01b038316179055600f80546affffffffffffffff00000019166301000000426001600160401b038116919091029190911790915561215c9062093a809061585c565b6012546040516001600160401b0392909216916001600160a01b038085169216907f39610571f23fd1a159473075de5b697023e7a31da8488147ecce3c05489885fa90600090a450565b600a80546114cd9061574c565b3360009081526001602052604090205460ff166121e2576040516282b42960e81b815260040160405180910390fd5b6001600160a01b038116600081815260208190526040808220805460ff19166001179055517fac6fa858e9350a46cec16539926e0fde25b7629f84b5a72bffaae4df888ae86d9190a250565b3360009081526001602052604090205460ff1661225d576040516282b42960e81b815260040160405180910390fd5b600f5460135463010000009091046001600160401b0316906001600160a01b0316158061229157506001600160401b038116155b156122af5760405163817ae11560e01b815260040160405180910390fd5b6122bc62093a808261586f565b6001600160401b0316426001600160401b031610156122ee576040516310733cc760e31b815260040160405180910390fd5b6013546012546040516001600160a01b0392831692909116907f2d2c1ec12191e7f1a0c23a865475c7abecc7f26edb6c409defa31748b28a501390600090a35060138054601280546001600160a01b03199081166001600160a01b03841617909155169055600f80546affffffffffffffff00000019169055565b61ffff811660009081526002602052604081208054606092919061238c9061574c565b80601f01602080910402602001604051908101604052809291908181526020018280546123b89061574c565b80156124055780601f106123da57610100808354040283529160200191612405565b820191906000526020600020905b8154815290600101906020018083116123e857829003601f168201915b50505050509050805160000361242e576040516305284c6160e31b815260040160405180910390fd5b61187760006014835161244191906157bc565b839190613fec565b6000806124c68b8b8b8b8b8080601f01602080910402602001604051908101604052809392919081815260200183838082843760009201919091525050604080516020601f8d018190048102820181019092528b81528e93508d9250908c908c90819084018382808284376000920191909152506140b692505050565b91509150995099975050505050505050565b3360009081526020819052604090205460ff16612507576040516282b42960e81b815260040160405180910390fd5b600f5460ff161561252b576040516326d1807b60e01b815260040160405180910390fd5b60125460408051635552aa6560e01b815290516000926001600160a01b031691635552aa659160048083019260209291908290030181865afa158015612575573d6000803e3d6000fd5b505050506040513d601f19601f82011682018060405250810190612599919061588f565b90506125a3611f5c565b6125ad908261585c565b4710156125cd5760405163f14a42b760e01b815260040160405180910390fd5b6012546040516368b5e37160e11b81526001600160a01b039091169063d16bc6e29083906125ff9086906004016158ed565b6000604051808303818588803b158015611b2f57600080fd5b3360009081526001602052604090205460ff16612647576040516282b42960e81b815260040160405180910390fd5b81813060405160200161265c9392919061597a565b60408051601f1981840301815291815261ffff851660009081526002602052209061268790826159e6565b507f8c0400cfe2d1199b1a725c78960bcc2a344d869b80590d0f2bd005db15a572ce8383836040516126bb939291906157f8565b60405180910390a1505050565b336000908152600c60205260408120805483919083906126e99084906157bc565b90915550506001600160a01b0383166000818152600c602052604090819020805485019055513390600080516020615fe4833981519152906116bb9086815260200190565b3360009081526001602052604090205460ff1661275d576040516282b42960e81b815260040160405180910390fd5b601180546001600160a01b0319166001600160a01b038316179055600f805467ffffffffffffffff60581b1916600160581b426001600160401b03811691909102919091179091556127b39062093a809061585c565b6010546040516001600160401b0392909216916001600160a01b038085169216907fa8aa7c0b023219361c11e0a52a6ae2e6b7404aa61f5df0fc03d6cb8acafd66bf90600090a450565b3360009081526001602052604090205460ff1661282c576040516282b42960e81b815260040160405180910390fd5b6001600160a01b038116600081815260208190526040808220805460ff19169055517f69df2c5ec2ea4d1fbe1e503524f593b356162ca710671263827f2e1992b95ae19190a250565b600061288084612ee0565b90506001600160a01b0382163314612901576001600160a01b0382166000908152600d602090815260408083203384529091529020548111156128d657604051630e81252160e01b815260040160405180910390fd5b6001600160a01b0382166000908152600d602090815260408083203384529091529020805482900390555b60148054600160801b6001600160801b031982166001600160801b0392831688900383169081178290048316859003831682021792839055612710920416111561295e5760405163860b82a960e01b815260040160405180910390fd5b6129688282614171565b60408051858152602081018390526001600160a01b03808616929085169133917ffbde797d201c681b91056529119e0b02407c7bb96a4a2c75c01fc9667232c8db910160405180910390a47f00000000000000000000000000000000000000000000000000000000000000006001600160a01b031663d0e30db0856040518263ffffffff1660e01b81526004016000604051808303818588803b158015612a0e57600080fd5b505af1158015612a22573d6000803e3d6000fd5b506118779350506001600160a01b037f0000000000000000000000000000000000000000000000000000000000000000169150859050866141d3565b6000612a698461154e565b90506001600160a01b0382163314612aea576001600160a01b0382166000908152600d60209081526040808320338452909152902054841115612abf57604051630e81252160e01b815260040160405180910390fd5b6001600160a01b0382166000908152600d602090815260408083203384529091529020805485900390555b60148054600160801b6001600160801b031982166001600160801b03928316859003831690811782900483168890038316820217928390556127109204161115612b475760405163860b82a960e01b815260040160405180910390fd5b612b518285614171565b60408051828152602081018690526001600160a01b03808616929085169133917ffbde797d201c681b91056529119e0b02407c7bb96a4a2c75c01fc9667232c8db910160405180910390a47f00000000000000000000000000000000000000000000000000000000000000006001600160a01b031663d0e30db0826040518263ffffffff1660e01b81526004016000604051808303818588803b158015612bf757600080fd5b505af1158015612c0b573d6000803e3d6000fd5b506118779350506001600160a01b037f0000000000000000000000000000000000000000000000000000000000000000169150859050836141d3565b3360009081526001602052604090205460ff16612c76576040516282b42960e81b815260040160405180910390fd5b600580546001600160a01b0319166001600160a01b0383169081179091556040519081527f5db758e995a17ec1ad84bdef7e8c3293a0bd6179bcce400dff5d4c3d87db726b906020015b60405180910390a150565b3360009081526001602052604090205460ff16612cfa576040516282b42960e81b815260040160405180910390fd5b6013546001600160a01b03161580612d225750600f54630100000090046001600160401b0316155b15612d405760405163817ae11560e01b815260040160405180910390fd5b6013546012546040516001600160a01b0392831692909116907f372791c0ff91275afe8e3b839b282b0dbb7bb639dbe7cd5896eedfec4c8ed8c690600090a3601380546001600160a01b0319169055600f80546affffffffffffffff00000019169055565b3360009081526001602052604090205460ff16612dd4576040516282b42960e81b815260040160405180910390fd5b600f54601154600160581b9091046001600160401b0316906001600160a01b03161580612e0857506001600160401b038116155b15612e2657604051634326d9bf60e11b815260040160405180910390fd5b612e3362093a808261586f565b6001600160401b0316426001600160401b03161015612e6557604051631a5340df60e31b815260040160405180910390fd5b6011546010546040516001600160a01b0392831692909116907f4dfa26cce610e1567cfad6de12824202e3394a8e66665914b3aeec46b60eca1190600090a35060118054601080546001600160a01b03199081166001600160a01b03841617909155169055600f805467ffffffffffffffff60581b19169055565b6014546000906001600160801b03161580612f0b5750601454600160801b90046001600160801b0316155b15612f14575090565b6014546001600160801b0380821691600160801b9004168302816115a7576115a7615790565b3360009081526001602052604090205460ff16612f69576040516282b42960e81b815260040160405180910390fd5b6040516332fb62e760e21b81526001600160a01b037f0000000000000000000000000000000000000000000000000000000000000000169063cbed8b9c90612fbd9088908890889088908890600401615aa5565b600060405180830381600087803b158015612fd757600080fd5b505af1158015611f51573d6000803e3d6000fd5b6001600160a01b0381166000908152600c60205260408120546114ba9047906130139061154e565b61425a565b61ffff8616600090815260066020526040808220905161303b9088908890615780565b90815260408051602092819003830190206001600160401b0387166000908152925290205490508061308057604051632b96c98560e21b815260040160405180910390fd5b808383604051613091929190615780565b6040518091039020146130b757604051637c6953f960e01b815260040160405180910390fd5b61ffff871660009081526006602052604080822090516130da9089908990615780565b90815260408051602092819003830181206001600160401b038916600090815290845282902093909355601f88018290048202830182019052868252613172918991899089908190840183828082843760009201919091525050604080516020601f8a018190048102820181019092528881528a935091508890889081908401838280828437600092019190915250613cd692505050565b7fc264d91f3adc5588250e1551f547752ca0cfa8f6b530d243b9f9f4cab10ea8e587878787856040516131a9959493929190615ade565b60405180910390a150505050505050565b4284101561320f5760405162461bcd60e51b815260206004820152601760248201527f5045524d49545f444541444c494e455f4558504952454400000000000000000060448201526064015b60405180910390fd5b6000600161321b6118f6565b6001600160a01b038a81166000818152600e602090815260409182902080546001810190915582517f6e71edae12b1b97f4d1f60370fef10105fa2faae0126114a169c64845d6126c98184015280840194909452938d166060840152608083018c905260a083019390935260c08083018b90528151808403909101815260e08301909152805192019190912061190160f01b6101008301526101028201929092526101228101919091526101420160408051601f198184030181528282528051602091820120600084529083018083525260ff871690820152606081018590526080810184905260a0016020604051602081039080840390855afa158015613327573d6000803e3d6000fd5b5050604051601f1901519150506001600160a01b0381161580159061335d5750876001600160a01b0316816001600160a01b0316145b61339a5760405162461bcd60e51b815260206004820152600e60248201526d24a72b20a624a22fa9a4a3a722a960911b6044820152606401613206565b6001600160a01b039081166000908152600d602090815260408083208a8516808552908352928190208990555188815291928a16917f8c5be1e5ebec7d5bd14f71427d1e84f3dd0314c0f7b2291e5b200ac8c7c3b92591015b60405180910390a350505050505050565b60006114ba61341247612ee0565b6001600160a01b0384166000908152600c602052604090205461425a565b3360009081526001602052604090205460ff1661345f576040516282b42960e81b815260040160405180910390fd5b6011546001600160a01b031615806134875750600f54600160581b90046001600160401b0316155b156134a557604051634326d9bf60e11b815260040160405180910390fd5b6011546010546040516001600160a01b0392831692909116907f84251438ec5abdb3e7f88a1f74e49cc798585f96428d53f9b3b85232b7f4bde390600090a3601180546001600160a01b0319169055600f805467ffffffffffffffff60581b19169055565b3360009081526001602052604090205460ff16613539576040516282b42960e81b815260040160405180910390fd5b8060000361355a5760405163e4ac3b3f60e01b815260040160405180910390fd5b61ffff83811660008181526003602090815260408083209487168084529482529182902085905581519283528201929092529081018290527f9d5c7c0b934da8fefa9c7760c98383778a12dfbfc0c3b3106518f43fb9508ac0906060016126bb565b3360009081526001602052604090205460ff166135eb576040516282b42960e81b815260040160405180910390fd5b6007805460ff19168215159081179091556040519081527f1584ad594a70cbe1e6515592e1272a987d922b097ead875069cebe8b40c004a490602001612cc0565b33301461364c576040516320aa6c2360e21b815260040160405180910390fd5b613657308686614269565b9350846001600160a01b03168a61ffff167fbf551ec93859b170f9b2141bd9298bf3f64322c6f7beb2543a0cb669834118bf8660405161369991815260200190565b60405180910390a3604051633fe79aed60e11b81526001600160a01b03861690637fcf35da9083906136dd908e908e908e908e908e908d908d908d90600401615b19565b600060405180830381600088803b1580156136f757600080fd5b5087f115801561370b573d6000803e3d6000fd5b505050505050505050505050505050565b3360009081526001602052604090205460ff1661374b576040516282b42960e81b815260040160405180910390fd5b61ffff83166000908152600260205260409020613769828483615b74565b507ffa41487ad5d6728f0b19276fa1eddc16558578f5109fc39d2dc33c3230470dab8383836040516126bb939291906157f8565b3360009081526001602052604090205460ff166137cc576040516282b42960e81b815260040160405180910390fd5b6001600160a01b0382166137f35760405163d92e233d60e01b815260040160405180910390fd5b6001600160a01b03811661381a5760405163d92e233d60e01b815260040160405180910390fd5b600f54610100900460ff16156138425760405162dc149f60e41b815260040160405180910390fd5b600f805461ff001916610100179055601080546001600160a01b038085166001600160a01b03199283168117909355601280549185169190921681179091556040519091907f64ba02ab01156808d0b519bed16cc382b3fc7fbe9bae6951b30fb08742b824a890600090a35050565b604051633d7b2f6f60e21b815261ffff808616600483015284166024820152306044820152606481018290526060907f00000000000000000000000000000000000000000000000000000000000000006001600160a01b03169063f5ecbdbc90608401600060405180830381865afa158015613931573d6000803e3d6000fd5b505050506040513d6000823e601f3d908101601f191682016040526139599190810190615c33565b95945050505050565b3360009081526001602052604090205460ff16613991576040516282b42960e81b815260040160405180910390fd5b600f805460ff191660011790556040517f26d1807b479eaba249c1214b82e4b65bbb0cc73ee8a17901324b1ef1b5904e4990600090a1565b6012546001600160a01b031633146139f457604051636edaef2f60e11b815260040160405180910390fd5b34600003613a1557604051637c946ed760e01b815260040160405180910390fd5b604080513381523460208201527f12b964a3993d1598dd8a3b627a3b90b4bc6b7a8f4f8bb6afde02a30d178e28ef910160405180910390a1346801bc16d674ec80000003613a5f57565b6801bc16d674ec800000341015613aa057601480546001600160801b03198116346001600160801b03928316016801bc16d674ec7fffff1901909116179055565b601480546001600160801b0380821634016801bc16d674ec7fffff1901166001600160801b0319909116179055565b600080613b325a60966366ad5c8a60e01b89898989604051602401613af79493929190615ca0565b60408051601f198184030181529190526020810180516001600160e01b03166001600160e01b031990931692909217909152309291906142bb565b9150915081611cb757611cb78686868685614345565b60007f8b73c3c69bb8fe3d512ecc4cf759cc79239f7b179b0ffacaa9a75d522b39400f6009604051613b7a9190615cde565b6040805191829003822060208301939093528101919091527fc89efdaa54c0f20c7adf612882df0950f5a951637e0307cdcb4c672f298b8bc660608201524660808201523060a082015260c00160405160208183030381529060405280519060200120905090565b6000806000613c3087613bf4886143e2565b6040805160006020820152602181019390935260c09190911b6001600160c01b0319166041830152805160298184030181526049909201905290565b60405163040a7bb160e41b81529091506001600160a01b037f000000000000000000000000000000000000000000000000000000000000000016906340a7bb1090613c87908b90309086908b908b90600401615d54565b6040805180830381865afa158015613ca3573d6000803e3d6000fd5b505050506040513d601f19601f82011682018060405250810190613cc79190615da8565b92509250509550959350505050565b6000613ce28282614439565b905060ff8116613cfd57613cf885858585614470565b611659565b60001960ff821601613d1557613cf8858585856144ef565b60405163fe3e832760e01b815260040160405180910390fd5b6000613d3c878284816146fd565b613d4585614739565b509050613d5488888884614779565b905080600003613d775760405163617ab12d60e11b815260040160405180910390fd5b6000613d8687613bf4846143e2565b9050613d968882878787346147ab565b86896001600160a01b03168961ffff167fd81fc9b8523134ed613870ed029d6170cbb73aa6a6bc311b9a642689fb9df59a85604051613dd791815260200190565b60405180910390a450979650505050505050565b34613e8757613e256001600160a01b037f000000000000000000000000000000000000000000000000000000000000000016333084614908565b604051632e1a7d4d60e01b8152600481018290527f00000000000000000000000000000000000000000000000000000000000000006001600160a01b031690632e1a7d4d90602401600060405180830381600087803b15801561164557600080fd5b80341015613ea857604051636ba4a1c760e01b815260040160405180910390fd5b50565b80600b6000828254613ebd919061585c565b90915550506001600160a01b0382166000818152600c6020908152604080832080548601905551848152600080516020615fe483398151915291015b60405180910390a35050565b6000613f1d896001846001600160401b0389166146fd565b613f2687614739565b509050613f358a8a8a84614779565b905080600003613f585760405163617ab12d60e11b815260040160405180910390fd5b6000613f6f338a613f68856143e2565b8a8a61499d565b9050613f7f8a82878787346147ab565b888b6001600160a01b03168b61ffff167fd81fc9b8523134ed613870ed029d6170cbb73aa6a6bc311b9a642689fb9df59a85604051613fc091815260200190565b60405180910390a4509998505050505050505050565b6000818311613fe55781611877565b5090919050565b606081613ffa81601f61585c565b1015614019576040516323d5783d60e11b815260040160405180910390fd5b614023828461585c565b8451101561404457604051632d0483c560e21b815260040160405180910390fd5b60608215801561406357604051915060008252602082016040526140ad565b6040519150601f8416801560200281840101858101878315602002848b0101015b8183101561409c578051835260209283019201614084565b5050858452601f01601f1916604052505b50949350505050565b60008060006140c9338a613f688b6143e2565b60405163040a7bb160e41b81529091506001600160a01b037f000000000000000000000000000000000000000000000000000000000000000016906340a7bb1090614120908d90309086908b908b90600401615d54565b6040805180830381865afa15801561413c573d6000803e3d6000fd5b505050506040513d601f19601f820116820180604052508101906141609190615da8565b925092505097509795505050505050565b6001600160a01b0382166000908152600c6020526040812080548392906141999084906157bc565b9091555050600b805482900390556040518181526000906001600160a01b03841690600080516020615fe483398151915290602001613ef9565b600060405163a9059cbb60e01b81526001600160a01b0384166004820152826024820152602060006044836000895af13d15601f3d11600160005114161716915050806142545760405162461bcd60e51b815260206004820152600f60248201526e1514905394d1915497d19052531151608a1b6044820152606401613206565b50505050565b6000818310613fe55781611877565b6000336001600160a01b03851630148015906142975750806001600160a01b0316856001600160a01b031614155b156142a7576142a78582856149de565b6142b2858585614a5e565b50909392505050565b6000606060008060008661ffff166001600160401b038111156142e0576142e06150f4565b6040519080825280601f01601f19166020018201604052801561430a576020820181803683370190505b50905060008087516020890160008d8df191503d92508683111561432c578692505b828152826000602083013e909890975095505050505050565b8180519060200120600660008761ffff1661ffff168152602001908152602001600020856040516143769190615dcc565b9081526040805191829003602090810183206001600160401b0388166000908152915220919091557fe183f33de2837795525b4792ca4cd60535bd77c53b7e7030060bfcf5734d6b0c906143d39087908790879087908790615de8565b60405180910390a15050505050565b60008061440f7f000000000000000000000000000000000000000000000000000000000000000084615e3a565b90506001600160401b038111156114ba57604051633124998d60e11b815260040160405180910390fd5b600061444682600161585c565b8351101561446757604051632d0483c560e21b815260040160405180910390fd5b50016001015190565b60008061447c83614aae565b90925090506001600160a01b0382166144955761dead91505b60006144a082614b0b565b90506144ad878483614b40565b9050826001600160a01b03168761ffff167fbf551ec93859b170f9b2141bd9298bf3f64322c6f7beb2543a0cb669834118bf836040516133f391815260200190565b600080600080600061450086614b53565b945094509450945094506000600860008b61ffff1661ffff168152602001908152602001600020896040516145359190615dcc565b90815260408051602092819003830190206001600160401b038b166000908152925281205460ff16915061456885614b0b565b9050816145d65761457a8b3083614b40565b61ffff8c166000908152600860205260409081902090519192506001916145a2908d90615dcc565b90815260408051602092819003830190206001600160401b038d16600090815292529020805460ff19169115159190911790555b6001600160a01b0386163b61462d576040516001600160a01b03871681527f9aedf5fdba8716db3b6705ca00150643309995d4f818a249ed6dde6677e7792d9060200160405180910390a150505050505050614254565b8a8a8a8a8a8a868a60008a61464b578b6001600160401b031661464d565b5a5b905060008061467f5a609663eaffd49a60e01b8e8e8e8d8d8d8d8d604051602401613af7989796959493929190615e4e565b9150915081156146d8578751602089012060405161ffff8d16907fb8890edbfc1c74692f527444645f95489c3703cc2df42e4a366f5d06fa6cd884906146ca908e908e908690615ec2565b60405180910390a2506146e5565b6146e58b8b8b8b85614345565b50505050505050505050505050505050505050505050565b60075460ff16156147195761471484848484614be0565b614254565b81511561425457604051638fadcadb60e01b815260040160405180910390fd5b6000806147667f000000000000000000000000000000000000000000000000000000000000000084615ef0565b905061477281846157bc565b9150915091565b6000336001600160a01b0386168114614797576147978682856149de565b6147a18684614171565b5090949350505050565b61ffff8616600090815260026020526040812080546147c99061574c565b80601f01602080910402602001604051908101604052809291908181526020018280546147f59061574c565b80156148425780601f1061481757610100808354040283529160200191614842565b820191906000526020600020905b81548152906001019060200180831161482557829003601f168201915b50505050509050805160000361486b576040516326ba7cfb60e01b815260040160405180910390fd5b614876878751614c61565b60405162c5803160e81b81526001600160a01b037f0000000000000000000000000000000000000000000000000000000000000000169063c58031009084906148cd908b9086908c908c908c908c90600401615f04565b6000604051808303818588803b1580156148e657600080fd5b505af11580156148fa573d6000803e3d6000fd5b505050505050505050505050565b60006040516323b872dd60e01b81526001600160a01b03851660048201526001600160a01b03841660248201528260448201526020600060648360008a5af13d15601f3d11600160005114161716915050806116595760405162461bcd60e51b81526020600482015260146024820152731514905394d1915497d19493d357d1905253115160621b6044820152606401613206565b6060600185856001600160a01b03891685876040516020016149c496959493929190615f6b565b604051602081830303815290604052905095945050505050565b6001600160a01b038084166000908152600d602090815260408083209386168352929052205460001981146142545781811015614a2e576040516313be252b60e01b815260040160405180910390fd5b6001600160a01b038085166000908152600d60209081526040808320938716835292905220828203905550505050565b6001600160a01b0383166000908152600c602052604081208054839290614a869084906157bc565b90915550506001600160a01b039091166000908152600c602052604090208054909101905550565b60008080614abc8482614439565b60ff16141580614ace57508251602914155b15614aec57604051637c6953f960e01b815260040160405180910390fd5b614af783600d614ca8565b9150614b04836021614ce6565b9050915091565b60006114ba7f00000000000000000000000000000000000000000000000000000000000000006001600160401b038416615fcc565b6000614b4c8383613eab565b5092915050565b600080806060816001614b668783614439565b60ff1614614b8757604051637c6953f960e01b815260040160405180910390fd5b614b9286600d614ca8565b9350614b9f866021614ce6565b9250614bac866029614d1d565b9450614bb9866049614ce6565b9050614bd56051808851614bcd91906157bc565b889190613fec565b915091939590929450565b6000614beb83614d54565b61ffff808716600090815260036020908152604080832093891683529290529081205491925090614c1d90849061585c565b905080600003614c4057604051631f3ec9d560e11b815260040160405180910390fd5b80821015611cb7576040516376a1e1d360e11b815260040160405180910390fd5b61ffff821660009081526004602052604081205490819003614c8257506127105b80821115614ca35760405163220b093360e11b815260040160405180910390fd5b505050565b6000614cb582601461585c565b83511015614cd657604051632d0483c560e21b815260040160405180910390fd5b500160200151600160601b900490565b6000614cf382600861585c565b83511015614d1457604051632d0483c560e21b815260040160405180910390fd5b50016008015190565b6000614d2a82602061585c565b83511015614d4b57604051632d0483c560e21b815260040160405180910390fd5b50016020015190565b6000602282511015614d795760405163cef80ea360e01b815260040160405180910390fd5b506022015190565b803561ffff811681146115ab57600080fd5b60008083601f840112614da557600080fd5b5081356001600160401b03811115614dbc57600080fd5b602083019150836020828501011115614dd457600080fd5b9250929050565b80356001600160401b03811681146115ab57600080fd5b60008060008060008060808789031215614e0b57600080fd5b614e1487614d81565b955060208701356001600160401b0380821115614e3057600080fd5b614e3c8a838b01614d93565b9097509550859150614e5060408a01614ddb565b94506060890135915080821115614e6657600080fd5b50614e7389828a01614d93565b979a9699509497509295939492505050565b600060208284031215614e9757600080fd5b81356001600160e01b03198116811461187757600080fd5b60005b83811015614eca578181015183820152602001614eb2565b50506000910152565b60008151808452614eeb816020860160208601614eaf565b601f01601f19169290920160200192915050565b6020815260006118776020830184614ed3565b600060208284031215614f2457600080fd5b5035919050565b600060208284031215614f3d57600080fd5b61187782614d81565b6001600160a01b0381168114613ea857600080fd5b60008060408385031215614f6e57600080fd5b8235614f7981614f46565b946020939093013593505050565b60008060408385031215614f9a57600080fd5b614f7983614d81565b600060208284031215614fb557600080fd5b813561187781614f46565b600080600060608486031215614fd557600080fd5b8335614fe081614f46565b92506020840135614ff081614f46565b929592945050506040919091013590565b803580151581146115ab57600080fd5b60008060008060008060a0878903121561502a57600080fd5b61503387614d81565b9550602087013594506040870135935061504f60608801615001565b925060808701356001600160401b0381111561506a57600080fd5b614e7389828a01614d93565b60008060006040848603121561508b57600080fd5b61509484614d81565b925060208401356001600160401b038111156150af57600080fd5b6150bb86828701614d93565b9497909650939450505050565b803560ff811681146115ab57600080fd5b6000602082840312156150eb57600080fd5b611877826150c8565b634e487b7160e01b600052604160045260246000fd5b604051601f8201601f191681016001600160401b0381118282101715615132576151326150f4565b604052919050565b60006001600160401b03821115615153576151536150f4565b50601f01601f191660200190565b60008060006060848603121561517657600080fd5b61517f84614d81565b925060208401356001600160401b0381111561519a57600080fd5b8401601f810186136151ab57600080fd5b80356151be6151b98261513a565b61510a565b8181528760208385010111156151d357600080fd5b816020840160208301376000602083830101528094505050506151f860408501614ddb565b90509250925092565b60006060828403121561521357600080fd5b50919050565b600080600080600060a0868803121561523157600080fd5b853561523c81614f46565b945061524a60208701614d81565b9350604086013592506060860135915060808601356001600160401b0381111561527357600080fd5b61527f88828901615201565b9150509295509295909350565b6000806040838503121561529f57600080fd5b8235915060208301356152b181614f46565b809150509250929050565b60008060008060008060008060e0898b0312156152d857600080fd5b88356152e381614f46565b97506152f160208a01614d81565b9650604089013595506060890135945060808901356001600160401b038082111561531b57600080fd5b6153278c838d01614d93565b909650945084915061533b60a08c01614ddb565b935060c08b013591508082111561535157600080fd5b5061535e8b828c01615201565b9150509295985092959890939650565b6000806040838503121561538157600080fd5b61538a83614d81565b915061539860208401614d81565b90509250929050565b600080600080600080600080600060e08a8c0312156153bf57600080fd5b6153c88a614d81565b985060208a0135975060408a0135965060608a01356001600160401b03808211156153f257600080fd5b6153fe8d838e01614d93565b909850965086915061541260808d01614ddb565b955061542060a08d01615001565b945060c08c013591508082111561543657600080fd5b506154438c828d01614d93565b915080935050809150509295985092959850929598565b60006020828403121561546c57600080fd5b81356001600160401b0381111561548257600080fd5b820160a0818503121561187757600080fd5b6000806000606084860312156154a957600080fd5b8335925060208401356154bb81614f46565b915060408401356154cb81614f46565b809150509250925092565b6000806000806000608086880312156154ee57600080fd5b6154f786614d81565b945061550560208701614d81565b93506040860135925060608601356001600160401b0381111561552757600080fd5b61553388828901614d93565b969995985093965092949392505050565b600080600080600080600060e0888a03121561555f57600080fd5b873561556a81614f46565b9650602088013561557a81614f46565b95506040880135945060608801359350615596608089016150c8565b925060a0880135915060c0880135905092959891949750929550565b600080604083850312156155c557600080fd5b82356155d081614f46565b915060208301356152b181614f46565b6000806000606084860312156155f557600080fd5b6155fe84614d81565b925061560c60208501614d81565b9150604084013590509250925092565b60006020828403121561562e57600080fd5b61187782615001565b6000806000806000806000806000806101008b8d03121561565757600080fd5b6156608b614d81565b995060208b01356001600160401b038082111561567c57600080fd5b6156888e838f01614d93565b909b50995089915061569c60408e01614ddb565b985060608d0135975060808d013591506156b582614f46565b90955060a08c0135945060c08c013590808211156156d257600080fd5b506156df8d828e01614d93565b9150809450508092505060e08b013590509295989b9194979a5092959850565b6000806000806080858703121561571557600080fd5b61571e85614d81565b935061572c60208601614d81565b9250604085013561573c81614f46565b9396929550929360600135925050565b600181811c9082168061576057607f821691505b60208210810361521357634e487b7160e01b600052602260045260246000fd5b8183823760009101908152919050565b634e487b7160e01b600052601260045260246000fd5b634e487b7160e01b600052601160045260246000fd5b818103818111156114ba576114ba6157a6565b81835281816020850137506000828201602090810191909152601f909101601f19169091010190565b61ffff841681526040602082015260006139596040830184866157cf565b6000808335601e1984360301811261582d57600080fd5b8301803591506001600160401b0382111561584757600080fd5b602001915036819003821315614dd457600080fd5b808201808211156114ba576114ba6157a6565b6001600160401b03818116838216019080821115614b4c57614b4c6157a6565b6000602082840312156158a157600080fd5b5051919050565b6000808335601e198436030181126158bf57600080fd5b83016020810192503590506001600160401b038111156158de57600080fd5b803603821315614dd457600080fd5b60208152600082356158fe81614f46565b6001600160a01b031660208381019190915261591c908401846158a8565b60a0604085015261593160c0850182846157cf565b9150506040840135606084015261594b60608501856158a8565b848303601f190160808601526159628382846157cf565b92505050608084013560a08401528091505092915050565b8284823760609190911b6bffffffffffffffffffffffff19169101908152601401919050565b601f821115614ca357600081815260208120601f850160051c810160208610156159c75750805b601f850160051c820191505b81811015611cb7578281556001016159d3565b81516001600160401b038111156159ff576159ff6150f4565b615a1381615a0d845461574c565b846159a0565b602080601f831160018114615a485760008415615a305750858301515b600019600386901b1c1916600185901b178555611cb7565b600085815260208120601f198616915b82811015615a7757888601518255948401946001909101908401615a58565b5085821015615a955787850151600019600388901b60f8161c191681555b5050505050600190811b01905550565b600061ffff808816835280871660208401525084604083015260806060830152615ad36080830184866157cf565b979650505050505050565b61ffff86168152608060208201526000615afc6080830186886157cf565b6001600160401b0394909416604083015250606001529392505050565b61ffff8916815260c060208201526000615b3760c08301898b6157cf565b6001600160401b038816604084015286606084015285608084015282810360a0840152615b658185876157cf565b9b9a5050505050505050505050565b6001600160401b03831115615b8b57615b8b6150f4565b615b9f83615b99835461574c565b836159a0565b6000601f841160018114615bd35760008515615bbb5750838201355b600019600387901b1c1916600186901b178355611659565b600083815260209020601f19861690835b82811015615c045786850135825560209485019460019092019101615be4565b5086821015615c215760001960f88860031b161c19848701351681555b505060018560011b0183555050505050565b600060208284031215615c4557600080fd5b81516001600160401b03811115615c5b57600080fd5b8201601f81018413615c6c57600080fd5b8051615c7a6151b98261513a565b818152856020838501011115615c8f57600080fd5b613959826020830160208601614eaf565b61ffff85168152608060208201526000615cbd6080830186614ed3565b6001600160401b03851660408401528281036060840152615ad38185614ed3565b6000808354615cec8161574c565b60018281168015615d045760018114615d1957615d48565b60ff1984168752821515830287019450615d48565b8760005260208060002060005b85811015615d3f5781548a820152908401908201615d26565b50505082870194505b50929695505050505050565b61ffff861681526001600160a01b038516602082015260a060408201819052600090615d8290830186614ed3565b84151560608401528281036080840152615d9c8185614ed3565b98975050505050505050565b60008060408385031215615dbb57600080fd5b505080516020909101519092909150565b60008251615dde818460208701614eaf565b9190910192915050565b61ffff8616815260a060208201526000615e0560a0830187614ed3565b6001600160401b03861660408401528281036060840152615e268186614ed3565b90508281036080840152615d9c8185614ed3565b600082615e4957615e49615790565b500490565b600061010061ffff8b168352806020840152615e6c8184018b614ed3565b6001600160401b038a166040850152606084018990526001600160a01b038816608085015260a0840187905283810360c08501529050615eac8186614ed3565b9150508260e08301529998505050505050505050565b606081526000615ed56060830186614ed3565b6001600160401b039490941660208301525060400152919050565b600082615eff57615eff615790565b500690565b61ffff8716815260c060208201526000615f2160c0830188614ed3565b8281036040840152615f338188614ed3565b6001600160a01b0387811660608601528616608085015283810360a08501529050615f5e8185614ed3565b9998505050505050505050565b60ff60f81b8760f81b16815285600182015260006001600160401b0360c01b808760c01b166021840152856029840152808560c01b166049840152508251615fba816051850160208701614eaf565b91909101605101979650505050505050565b80820281158282048414176114ba576114ba6157a656feddf252ad1be2c89b69c2b068fc378daa952ba7f163c4a11628f55a4df523b3efa26469706673582212209ca480a7730dab0a929c12a516d24e6af74c30742ebad3361f542af758ff8ea464736f6c63430008130033",
    "linkReferences": {}
  },
  "methodIdentifiers": {
    "DEFAULT_PAYLOAD_SIZE_LIMIT()": "c4461834",
    "DOMAIN_SEPARATOR()": "3644e515",
    "MAX_DEPOSIT()": "dd5967c3",
    "MIN_DEPOSIT()": "e1e158a5",
    "MODULE_UPDATE_TIME_DELAY()": "6fcc2d98",
    "NO_EXTRA_GAS()": "44770515",
    "PT_SEND()": "4c42899a",
    "PT_SEND_AND_CALL()": "e6a20ae6",
    "WETH()": "ad5c4648",
    "addAdmin(address)": "70480275",
    "addOperator(address)": "9870d7fe",
    "admins(address)": "429b62e5",
    "allowance(address,address)": "dd62ed3e",
    "approve(address,uint256)": "095ea7b3",
    "asset()": "38d52e0f",
    "balanceOf(address)": "70a08231",
    "bufferPercentNumerator()": "07a54f59",
    "calculateNeededEtherBuffer()": "82b9ebaa",
    "callOnOFTReceived(uint16,bytes,uint64,bytes32,address,uint256,bytes,uint256)": "eaffd49a",
    "cancelUpdateMevEthShareVault()": "ddc2f1ab",
    "cancelUpdateStakingModule()": "bbbad849",
    "circulatingSupply()": "9358928b",
    "commitUpdateMevEthShareVault(address)": "aa1cb376",
    "commitUpdateStakingModule(address)": "95849aa4",
    "convertToAssets(uint256)": "07a2d13a",
    "convertToShares(uint256)": "c6e6f592",
    "createValidator((address,bytes,bytes32,bytes,bytes32))": "a67add53",
    "creditedPackets(uint16,bytes,uint64)": "9bdb9812",
    "decimals()": "313ce567",
    "deleteAdmin(address)": "27e1f7df",
    "deleteOperator(address)": "b40992a1",
    "deposit(uint256,address)": "6e553f65",
    "estimateSendAndCallFee(uint16,bytes32,uint256,bytes,uint64,bool,bytes)": "a4c51df5",
    "estimateSendFee(uint16,bytes32,uint256,bool,bytes)": "365260b4",
    "failedMessages(uint16,bytes,uint64)": "5b8c41e6",
    "finalizeUpdateMevEthShareVault()": "bc74efe8",
    "finalizeUpdateStakingModule()": "9ed89c91",
    "forceResumeReceive(uint16,bytes)": "42d65a8d",
    "fraction()": "d8894bb5",
    "getConfig(uint16,uint16,address,uint256)": "f5ecbdbc",
    "getTrustedRemoteAddress(uint16)": "9f38369a",
    "grantRewards()": "558cb7f7",
    "grantValidatorWithdraw()": "fe183211",
    "init(address,address)": "f09a4016",
    "initialized()": "158ef93e",
    "isTrustedRemote(uint16,bytes)": "3d8b38f6",
    "lzEndpoint()": "b353aaa7",
    "lzReceive(uint16,bytes,uint64,bytes)": "001d3567",
    "maxDeposit(address)": "402d267d",
    "maxMint(address)": "c63d75b6",
    "maxRedeem(address)": "d905777e",
    "maxWithdraw(address)": "ce96cb77",
    "mevEthShareVault()": "f9cc45f2",
    "minDstGasLookup(uint16,uint16)": "8cfd8f5c",
    "mint(uint256,address)": "94bf804d",
    "name()": "06fdde03",
    "nonblockingLzReceive(uint16,bytes,uint64,bytes)": "66ad5c8a",
    "nonces(address)": "7ecebe00",
    "operators(address)": "13e7c9d8",
    "pauseStaking()": "f999c506",
    "payloadSizeLimitLookup(uint16)": "3f1f4fa4",
    "pendingMevEthShareVault()": "d02aaa65",
    "pendingMevEthShareVaultCommittedTimestamp()": "6a4c6618",
    "pendingStakingModule()": "72cf7751",
    "pendingStakingModuleCommittedTimestamp()": "3cb5c588",
    "permit(address,address,uint256,uint256,uint8,bytes32,bytes32)": "d505accf",
    "precrime()": "950c8a74",
    "previewDeposit(uint256)": "ef8b30f7",
    "previewMint(uint256)": "b3d7f6b9",
    "previewRedeem(uint256)": "4cdad506",
    "previewWithdraw(uint256)": "0a28a477",
    "redeem(uint256,address,address)": "ba087652",
    "retryMessage(uint16,bytes,uint64,bytes)": "d1deba1f",
    "sendAndCall(address,uint16,bytes32,uint256,bytes,uint64,(address,address,bytes))": "76203b48",
    "sendFrom(address,uint16,bytes32,uint256,(address,address,bytes))": "695ef6bf",
    "setConfig(uint16,uint16,uint256,bytes)": "cbed8b9c",
    "setMinDstGas(uint16,uint16,uint256)": "df2a5b3b",
    "setPayloadSizeLimit(uint16,uint256)": "0df37483",
    "setPrecrime(address)": "baf3292d",
    "setReceiveVersion(uint16)": "10ddb137",
    "setSendVersion(uint16)": "07e0db17",
    "setTrustedRemote(uint16,bytes)": "eb8d72b7",
    "setTrustedRemoteAddress(uint16,bytes)": "a6c3d165",
    "setUseCustomAdapterParams(bool)": "eab45d9c",
    "sharedDecimals()": "857749b0",
    "stakingModule()": "504b82bf",
    "stakingPaused()": "bbb781cc",
    "supportsInterface(bytes4)": "01ffc9a7",
    "symbol()": "95d89b41",
    "token()": "fc0c546a",
    "totalAssets()": "01e1d114",
    "totalSupply()": "18160ddd",
    "transfer(address,uint256)": "a9059cbb",
    "transferFrom(address,address,uint256)": "23b872dd",
    "trustedRemoteLookup(uint16)": "7533d788",
    "unpauseStaking()": "93f4bcde",
    "updateBufferPercentNumerator(uint8)": "4806fca7",
    "useCustomAdapterParams()": "ed629c5c",
    "withdraw(uint256,address,address)": "b460af94"
  },
  "id": 60
}