{
  "_format": "hh-sol-artifact-1",
  "contractName": "MevETHRateProvider",
  "sourceName": "contracts/MevEthRateProvider.sol",
  "abi": [
    {
      "inputs": [
        {
          "internalType": "contract IMevEth",
          "name": "_mevETH",
          "type": "address"
        }
      ],
      "stateMutability": "nonpayable",
      "type": "constructor"
    },
    {
      "inputs": [],
      "name": "getRate",
      "outputs": [
        {
          "internalType": "uint256",
          "name": "",
          "type": "uint256"
        }
      ],
      "stateMutability": "view",
      "type": "function"
    },
    {
      "inputs": [],
      "name": "mevETH",
      "outputs": [
        {
          "internalType": "contract IMevEth",
          "name": "",
          "type": "address"
        }
      ],
      "stateMutability": "view",
      "type": "function"
    }
  ],
  "bytecode": "0x60a060405234801561001057600080fd5b5060405161021638038061021683398101604081905261002f91610040565b6001600160a01b0316608052610070565b60006020828403121561005257600080fd5b81516001600160a01b038116811461006957600080fd5b9392505050565b608051610186610090600039600081816040015260db01526101866000f3fe608060405234801561001057600080fd5b50600436106100365760003560e01c806330711adf1461003b578063679aefce1461008c575b600080fd5b6100627f000000000000000000000000000000000000000000000000000000000000000081565b60405173ffffffffffffffffffffffffffffffffffffffff90911681526020015b60405180910390f35b6100946100a2565b604051908152602001610083565b6040517f07a2d13a000000000000000000000000000000000000000000000000000000008152670de0b6b3a764000060048201526000907f000000000000000000000000000000000000000000000000000000000000000073ffffffffffffffffffffffffffffffffffffffff16906307a2d13a90602401602060405180830381865afa158015610137573d6000803e3d6000fd5b505050506040513d601f19601f8201168201806040525081019061015b9190610160565b905090565b60006020828403121561017257600080fd5b505191905056fea164736f6c6343000813000a",
  "linkReferences": {},
  "deployedLinkReferences": {}
}