{
  "_format": "hh-sol-artifact-1",
  "contractName": "WagyuStaker",
  "sourceName": "contracts/WagyuStaker.sol",
  "abi": [
    {
      "inputs": [
        {
          "internalType": "address",
          "name": "authority",
          "type": "address"
        },
        {
          "internalType": "address",
          "name": "depositContract",
          "type": "address"
        },
        {
          "internalType": "address",
          "name": "mevEth",
          "type": "address"
        }
      ],
      "stateMutability": "nonpayable",
      "type": "constructor"
    },
    {
      "inputs": [],
      "name": "UnAuthorizedCaller",
      "type": "error"
    },
    {
      "inputs": [],
      "name": "Unauthorized",
      "type": "error"
    },
    {
      "inputs": [],
      "name": "WrongDepositAmount",
      "type": "error"
    },
    {
      "inputs": [],
      "name": "WrongRole",
      "type": "error"
    },
    {
      "anonymous": false,
      "inputs": [
        {
          "indexed": true,
          "internalType": "address",
          "name": "newAdmin",
          "type": "address"
        }
      ],
      "name": "AdminAdded",
      "type": "event"
    },
    {
      "anonymous": false,
      "inputs": [
        {
          "indexed": true,
          "internalType": "address",
          "name": "oldAdmin",
          "type": "address"
        }
      ],
      "name": "AdminDeleted",
      "type": "event"
    },
    {
      "anonymous": false,
      "inputs": [
        {
          "indexed": true,
          "internalType": "address",
          "name": "operator",
          "type": "address"
        },
        {
          "indexed": false,
          "internalType": "bytes",
          "name": "pubkey",
          "type": "bytes"
        },
        {
          "indexed": false,
          "internalType": "bytes32",
          "name": "withdrawalCredentials",
          "type": "bytes32"
        },
        {
          "indexed": false,
          "internalType": "bytes",
          "name": "signature",
          "type": "bytes"
        },
        {
          "indexed": false,
          "internalType": "bytes32",
          "name": "deposit_data_root",
          "type": "bytes32"
        }
      ],
      "name": "NewValidator",
      "type": "event"
    },
    {
      "anonymous": false,
      "inputs": [
        {
          "indexed": true,
          "internalType": "address",
          "name": "newOperator",
          "type": "address"
        }
      ],
      "name": "OperatorAdded",
      "type": "event"
    },
    {
      "anonymous": false,
      "inputs": [
        {
          "indexed": true,
          "internalType": "address",
          "name": "oldOperator",
          "type": "address"
        }
      ],
      "name": "OperatorDeleted",
      "type": "event"
    },
    {
      "anonymous": false,
      "inputs": [
        {
          "indexed": true,
          "internalType": "address",
          "name": "recipient",
          "type": "address"
        },
        {
          "indexed": true,
          "internalType": "address",
          "name": "token",
          "type": "address"
        },
        {
          "indexed": true,
          "internalType": "uint256",
          "name": "amount",
          "type": "uint256"
        }
      ],
      "name": "TokenRecovered",
      "type": "event"
    },
    {
      "stateMutability": "payable",
      "type": "fallback"
    },
    {
      "inputs": [],
      "name": "BEACON_CHAIN_DEPOSIT_CONTRACT",
      "outputs": [
        {
          "internalType": "contract IBeaconDepositContract",
          "name": "",
          "type": "address"
        }
      ],
      "stateMutability": "view",
      "type": "function"
    },
    {
      "inputs": [],
      "name": "MEV_ETH",
      "outputs": [
        {
          "internalType": "address",
          "name": "",
          "type": "address"
        }
      ],
      "stateMutability": "view",
      "type": "function"
    },
    {
      "inputs": [],
      "name": "VALIDATOR_DEPOSIT_SIZE",
      "outputs": [
        {
          "internalType": "uint256",
          "name": "",
          "type": "uint256"
        }
      ],
      "stateMutability": "view",
      "type": "function"
    },
    {
      "inputs": [
        {
          "internalType": "address",
          "name": "newAdmin",
          "type": "address"
        }
      ],
      "name": "addAdmin",
      "outputs": [],
      "stateMutability": "nonpayable",
      "type": "function"
    },
    {
      "inputs": [
        {
          "internalType": "address",
          "name": "newOperator",
          "type": "address"
        }
      ],
      "name": "addOperator",
      "outputs": [],
      "stateMutability": "nonpayable",
      "type": "function"
    },
    {
      "inputs": [
        {
          "internalType": "address",
          "name": "",
          "type": "address"
        }
      ],
      "name": "admins",
      "outputs": [
        {
          "internalType": "bool",
          "name": "",
          "type": "bool"
        }
      ],
      "stateMutability": "view",
      "type": "function"
    },
    {
      "inputs": [],
      "name": "balance",
      "outputs": [
        {
          "internalType": "uint256",
          "name": "",
          "type": "uint256"
        }
      ],
      "stateMutability": "view",
      "type": "function"
    },
    {
      "inputs": [
        {
          "internalType": "address",
          "name": "oldAdmin",
          "type": "address"
        }
      ],
      "name": "deleteAdmin",
      "outputs": [],
      "stateMutability": "nonpayable",
      "type": "function"
    },
    {
      "inputs": [
        {
          "internalType": "address",
          "name": "oldOperator",
          "type": "address"
        }
      ],
      "name": "deleteOperator",
      "outputs": [],
      "stateMutability": "nonpayable",
      "type": "function"
    },
    {
      "inputs": [
        {
          "components": [
            {
              "internalType": "address",
              "name": "operator",
              "type": "address"
            },
            {
              "internalType": "bytes",
              "name": "pubkey",
              "type": "bytes"
            },
            {
              "internalType": "bytes32",
              "name": "withdrawal_credentials",
              "type": "bytes32"
            },
            {
              "internalType": "bytes",
              "name": "signature",
              "type": "bytes"
            },
            {
              "internalType": "bytes32",
              "name": "deposit_data_root",
              "type": "bytes32"
            }
          ],
          "internalType": "struct IStakingModule.ValidatorData",
          "name": "data",
          "type": "tuple"
        }
      ],
      "name": "deposit",
      "outputs": [],
      "stateMutability": "payable",
      "type": "function"
    },
    {
      "inputs": [
        {
          "internalType": "address",
          "name": "",
          "type": "address"
        }
      ],
      "name": "operators",
      "outputs": [
        {
          "internalType": "bool",
          "name": "",
          "type": "bool"
        }
      ],
      "stateMutability": "view",
      "type": "function"
    },
    {
      "inputs": [
        {
          "internalType": "uint256",
          "name": "newBalance",
          "type": "uint256"
        },
        {
          "internalType": "uint256",
          "name": "newValidators",
          "type": "uint256"
        }
      ],
      "name": "oracleUpdate",
      "outputs": [],
      "stateMutability": "nonpayable",
      "type": "function"
    },
    {
      "inputs": [
        {
          "internalType": "uint256",
          "name": "amount",
          "type": "uint256"
        }
      ],
      "name": "payValidatorWithdraw",
      "outputs": [],
      "stateMutability": "nonpayable",
      "type": "function"
    },
    {
      "inputs": [
        {
          "internalType": "address",
          "name": "token",
          "type": "address"
        },
        {
          "internalType": "address",
          "name": "recipient",
          "type": "address"
        },
        {
          "internalType": "uint256",
          "name": "amount",
          "type": "uint256"
        }
      ],
      "name": "recoverToken",
      "outputs": [],
      "stateMutability": "nonpayable",
      "type": "function"
    },
    {
      "inputs": [],
      "name": "validators",
      "outputs": [
        {
          "internalType": "uint256",
          "name": "",
          "type": "uint256"
        }
      ],
      "stateMutability": "view",
      "type": "function"
    },
    {
      "stateMutability": "payable",
      "type": "receive"
    }
  ],
  "bytecode": "0x60c060405234801561001057600080fd5b50604051610c5e380380610c5e83398101604081905261002f91610091565b6001600160a01b039283166000908152600160208181526040808420805460ff19908116851790915591849052909220805490921617905582166080521660a0526100d4565b80516001600160a01b038116811461008c57600080fd5b919050565b6000806000606084860312156100a657600080fd5b6100af84610075565b92506100bd60208501610075565b91506100cb60408501610075565b90509250925092565b60805160a051610b49610115600039600081816102d301526106c301526000818161021b015281816104200152818161061c01526107ff0152610b496000f3fe6080604052600436106100e05760003560e01c80639eb7e5c111610084578063ca1e781911610056578063ca1e7819146102ab578063cceab750146102c1578063d16bc6e2146102f5578063d4aedab21461030857005b80639eb7e5c114610209578063a7229fd914610255578063b40992a114610275578063b69ef8a81461029557005b80635552aa65116100bd5780635552aa651461017e57806370480275146101a957806392280bcd146101c95780639870d7fe146101e957005b806313e7c9d8146100e957806327e1f7df1461012e578063429b62e51461014e57005b366100e757005b005b3480156100f557600080fd5b50610119610104366004610930565b60006020819052908152604090205460ff1681565b60405190151581526020015b60405180910390f35b34801561013a57600080fd5b506100e7610149366004610930565b610328565b34801561015a57600080fd5b50610119610169366004610930565b60016020526000908152604090205460ff1681565b34801561018a57600080fd5b5061019b6801bc16d674ec80000081565b604051908152602001610125565b3480156101b557600080fd5b506100e76101c4366004610930565b6103a0565b3480156101d557600080fd5b506100e76101e4366004610952565b61041e565b3480156101f557600080fd5b506100e7610204366004610930565b610495565b34801561021557600080fd5b5061023d7f000000000000000000000000000000000000000000000000000000000000000081565b6040516001600160a01b039091168152602001610125565b34801561026157600080fd5b506100e761027036600461096b565b610510565b34801561028157600080fd5b506100e7610290366004610930565b610599565b3480156102a157600080fd5b5061019b60025481565b3480156102b757600080fd5b5061019b60035481565b3480156102cd57600080fd5b5061023d7f000000000000000000000000000000000000000000000000000000000000000081565b6100e76103033660046109a7565b610611565b34801561031457600080fd5b506100e76103233660046109e2565b6107f4565b3360009081526001602052604090205460ff16610357576040516282b42960e81b815260040160405180910390fd5b6001600160a01b038116600081815260016020526040808220805460ff19169055517f989ddfce057dad219e0ae16f691b121bb0e348f0d8ae0ad400b4d5ac8d616c8b9190a250565b3360009081526001602052604090205460ff166103cf576040516282b42960e81b815260040160405180910390fd5b6001600160a01b0381166000818152600160208190526040808320805460ff1916909217909155517f44d6d25963f097ad14f29f06854a01f575648a1ef82f30e562ccd3889717e3399190a250565b7f00000000000000000000000000000000000000000000000000000000000000006001600160a01b031663fe183211826040518263ffffffff1660e01b81526004016000604051808303818588803b15801561047957600080fd5b505af115801561048d573d6000803e3d6000fd5b505050505050565b3360009081526001602052604090205460ff166104c4576040516282b42960e81b815260040160405180910390fd5b6001600160a01b038116600081815260208190526040808220805460ff19166001179055517fac6fa858e9350a46cec16539926e0fde25b7629f84b5a72bffaae4df888ae86d9190a250565b3360009081526001602052604090205460ff1661053f576040516282b42960e81b815260040160405180910390fd5b6105536001600160a01b0384168383610848565b80836001600160a01b0316836001600160a01b03167f879f92dded0f26b83c3e00b12e0395dc72cfc3077343d1854ed6988edd1f909660405160405180910390a4505050565b3360009081526001602052604090205460ff166105c8576040516282b42960e81b815260040160405180910390fd5b6001600160a01b038116600081815260208190526040808220805460ff19169055517f69df2c5ec2ea4d1fbe1e503524f593b356162ca710671263827f2e1992b95ae19190a250565b336001600160a01b037f0000000000000000000000000000000000000000000000000000000000000000161461065a5760405163e3272bbb60e01b815260040160405180910390fd5b6801bc16d674ec800000341461069c576040517fdfe159f200000000000000000000000000000000000000000000000000000000815260040160405180910390fd5b600280546801bc16d674ec8000009081019091556003805460010190556001600160a01b037f000000000000000000000000000000000000000000000000000000000000000016906322895118906106f76020850185610a04565b604080518188013560208201520160408051601f198184030181529190526107226060880188610a04565b88608001356040518863ffffffff1660e01b815260040161074896959493929190610a7b565b6000604051808303818588803b15801561076157600080fd5b505af1158015610775573d6000803e3d6000fd5b506107899350505060208301905082610930565b6001600160a01b03167ffc9422d796533611e741d6d7744236676f2114b7e01cb7f2cc412b12ce1da5566107c06020840184610a04565b60408501356107d26060870187610a04565b87608001356040516107e996959493929190610afb565b60405180910390a250565b336001600160a01b037f0000000000000000000000000000000000000000000000000000000000000000161461083d5760405163e3272bbb60e01b815260040160405180910390fd5b600291909155600355565b60006040517fa9059cbb0000000000000000000000000000000000000000000000000000000081526001600160a01b0384166004820152826024820152602060006044836000895af13d15601f3d116001600051141617169150508061090e576040517f08c379a000000000000000000000000000000000000000000000000000000000815260206004820152600f60248201527f5452414e534645525f4641494c45440000000000000000000000000000000000604482015260640160405180910390fd5b50505050565b80356001600160a01b038116811461092b57600080fd5b919050565b60006020828403121561094257600080fd5b61094b82610914565b9392505050565b60006020828403121561096457600080fd5b5035919050565b60008060006060848603121561098057600080fd5b61098984610914565b925061099760208501610914565b9150604084013590509250925092565b6000602082840312156109b957600080fd5b813567ffffffffffffffff8111156109d057600080fd5b820160a0818503121561094b57600080fd5b600080604083850312156109f557600080fd5b50508035926020909101359150565b6000808335601e19843603018112610a1b57600080fd5b83018035915067ffffffffffffffff821115610a3657600080fd5b602001915036819003821315610a4b57600080fd5b9250929050565b81835281816020850137506000828201602090810191909152601f909101601f19169091010190565b608081526000610a8f60808301888a610a52565b602083820381850152875180835260005b81811015610abb578981018301518482018401528201610aa0565b506000838201830152601f01601f19169091018381038201604085015290610ae68282018789610a52565b92505050826060830152979650505050505050565b608081526000610b0f60808301888a610a52565b8660208401528281036040840152610b28818688610a52565b91505082606083015297965050505050505056fea164736f6c6343000813000a",
  "linkReferences": {},
  "deployedLinkReferences": {}
}